S01000006C63645F746573742E73726563C2
S11300000C943E000C9453000C9453000C94530035
S11300100C9453000C9453000C9453000C94530010
S11300200C9453000C9453000C9453000C94530000
S11300300C9453000C9453000C9453000C945300F0
S11300400C9453000C9453000C9453000C945300E0
S11300500C9453000C9453000C9453000C945300D0
S11300600C9453000C9453000C9453000C945300C0
S11300700C9453000C9453000C94530011241FBE91
S1130080CFEFD8E0DEBFCDBF12E0A0E0B1E0EAEFF1
S1130090F4E002C005900D92A634B107D9F70E948E
S11300A028010C947B020C940000169A00C0169848
S11300B00895CF93DF93D82F662311F0149A01C0CB
S11300C01498159881B18F6081B9C2B1C07F8D2F0A
S11300D082958F708C2B82B90E945500DF70DC2BC7
S11300E0D2B90E945500CF60C2B9DF91CF91089573
S11300F0882311F0149A01C01498159A81B1807F55
S113010081B9169A00C090B1169800C0169A00C022
S113011080B116989295907F8F70892B089580E016
S11301200E9478008823DCF381E090E00197F1F7E6
S113013080E00E9478000895CF93C82F0E948F001A
S113014060E08C2F0E945900CF910895611104C082
S113015080580E949C000895613021F480540E94CC
S11301609C000895623021F48C560E949C000895EE
S11301708C520E949C00089581E00E949C00089586
S113018082E00E949C000895CF93C82F0E948F00A4
S1130190CA30A1F4843148F0982F9054943138F047
S11301A084518C3230F484E505C080E403C084E1DA
S11301B001C080E080580E949C0004C061E08C2F44
S11301C00E945900CF910895CF93DF93EC01899158
S11301D0882329F00E94C40089918111FBCFDF910B
S11301E0CF9108951F93CF93DF93182F81B18F6719
S11301F081B9E0EEFEE23197F1F7119A109A0E946C
S11302005500E0EAFEE03197F1F70E945500C0E3A3
S1130210D0E0FE013197F1F70E945500FE013197BD
S1130220F1F710980E9455002197F1F788E20E9497
S11302309C0088E00E949C000E94BC0086E00E9412
S11302409C00812F0E949C00DF91CF911F91089503
S11302508FE00E94F2000E94BC000E94C00080E077
S113026091E00E94E40061E080E00E94A60083E146
S113027091E00E94E40062E080E00E94A60087E230
S113028091E00E94E4002FE78DE89BE52150804037
S11302909040E1F700C000000E94BC000E94C00032
S11302A08BE391E00E94E4002FE784E89EE1215073
S11302B080409040E1F700C000000E94C0008CE440
S11302C091E00E94E4002FE784E89EE12150804001
S11302D09040E1F700C000000E94C0008EE591E06C
S11302E00E94E4002FE784E89EE121508040904082
S11302F0E1F700C000000E94C00081E791E00E9485
S1130300E4002FE784E89EE1215080409040E1F72B
S113031000C000000E94BC000E94C00085E891E07B
S11303200E94E4002FE784E89EE121508040904041
S1130330E1F700C000000E94BC000E94C00083E9F5
S113034091E00E94E4002FE784E89EE12150804080
S11303509040E1F700C000000E94BC000E94C00071
S113036081EA91E00E94E4002FE784E89EE12150B5
S113037080409040E1F700C000000E94BC000E9451
S1130380C00080EB91E00E94E4002FE784E89EE146
S1130390215080409040E1F700C000000E94BC0062
S11303A00E94C00080EC91E00E94E4002FE784E802
S11303B09EE1215080409040E1F700C000000E947F
S11303C0BC000E94C00081ED91E00E94E40061E065
S11303D080E00E94A60083EE91E00E94E40062E0C7
S11303E080E00E94A60088EE91E00E94E4002FE7DE
S11303F08DE89BE5215080409040E1F700C000006B
S11304000E94BC000E94C0008DEE91E00E94E400B6
S11304102FE784E89EE1215080409040E1F700C03E
S113042000000E94BC000E94C0008DEF91E00E9479
S1130430E4002FE784E89EE1215080409040E1F7FA
S113044000C000000E94BC000E94C0008EE092E048
S11304500E94E4002FE784E89EE121508040904010
S1130460E1F700C000000E94BC000E94C00080E2CE
S113047092E00E94E4002FE784E89EE1215080404E
S11304809040E1F700C000000E94BC000E94C00040
S113049060E084E00E94A60083E392E00E94E4000E
S11304A061E080E00E94A60080E492E00E94E40003
S11304B062E080E00E94A60083EE91E00E94E400E6
S11304C063E080E00E94A60088EE91E00E94E400D0
S11304D02FE784E89EE1215080409040E1F700C07E
S11304E000002FE784E89EE1215080409040E1F72E
S10D04F000C00000F6CFF894FFCF1F
S11304FA475053204C6F676765722050726F6A6564
S113050A6374004279204869646179617420616E78
S113051A64204D616E7500436F6D7020456E6720CF
S113052A485457204265726C696E00526561646969
S113053A6E672066726F6D2053442E0052656164A3
S113054A696E672066726F6D2053442E2E005265C1
S113055A6164696E672066726F6D2053442E2E2E75
S113056A0052656164696E672066726F6D20534438
S113057A2E2E2E2E00526561642073756363657393
S113058A732100496E697420646973706C61792EF1
S113059A00496E697420646973706C61792E2E0047
S11305AA496E697420646973706C61792E2E2E0009
S11305BA496E697420646973706C61792E2E2E2ECB
S11305CA004465737420636F6F722066726F6D20C6
S11305DA5344004C61743A004C6F6E3A0046657499
S11305EA63682047505320636F6F722E0046657408
S11305FA63682047505320636F6F722E2E0046653E
S113060A7463682047505320636F6F722E2E2E0036
S113061A46657463682047505320636F6F722E2EA9
S113062A2E2E00506F7320616E6420646973740007
S109063A446973743A00E8
S9030000FC
