:100000000C943E000C945B000C945B000C945B0021
:100010000C945B000C945B000C945B000C945B00F4
:100020000C945B000C945B000C945B000C945B00E4
:100030000C945B000C945B000C945B000C945B00D4
:100040000C945B000C945B000C945B000C945B00C4
:100050000C945B000C945B000C945B000C945B00B4
:100060000C945B000C945B000C945B000C945B00A4
:100070000C9431040C9476040C945B0011241FBE84
:10008000CFEFD8E0DEBFCDBF11E0A0E0B1E0EEE4FD
:10009000F9E002C005900D92A039B107D9F723E02D
:1000A000A0E9B1E001C01D92A433B207E1F70E94BC
:1000B00037030C94A5040C940000813608F080529C
:1000C000813428F08753803130F080E008958053E8
:1000D0008A3008F080E008956115710581F020E014
:1000E00030E040E050E0FC01E20FF31F2081522796
:1000F0004F5F242F30E026173707A8F301C050E0E8
:10010000852F0895EF92FF920F931F93CF93DF9364
:10011000E82E8B01EA0180EA0E94060481EA0E942F
:1001200006049E012F5F3F4F832F0E9406048C2FF1
:100130008F5F0E9406048E2D0E940604209779F09E
:1001400020E030E0F12CF801E20FF31F80810E94E3
:100150000604F3942F2D30E02C173D07A0F3BE01C9
:10016000C8010E946C008E250E9406048DE00E944A
:1001700006048AE00E94060483E8DF91CF911F9174
:100180000F91FF90EF9008950F931F93CF93DF93FC
:10019000CDB7DEB72A970FB6F894DEBF0FBECDBF3E
:1001A000082F162F8FE290E00E94DB032FEF8FE3E2
:1001B00092E0215080409040E1F700C0000011FB28
:1001C000882780F9898312FB882780F98A8313FBAB
:1001D000882780F98B8314FB882780F98C8315FB93
:1001E000882780F98D8316FB882780F98E83111F5D
:1001F0001127111F1F83188648E050E0BE016F5F72
:100200007F4F88E00E9482002FEF8FE191E0215024
:1002100080409040E1F700C0000009871A8642E064
:1002200050E0BE01675F7F4F8EE00E9482002FEF9B
:100230008FE191E0215080409040E1F700C0000044
:100240002A960FB6F894DEBF0FBECDBFDF91CF91D7
:100250001F910F910895BF92CF92DF92EF92FF927C
:100260000F931F93CF93DF93C62FA1E034E2D1E029
:10027000B12CF12CB0E0D22EC12C01C0AF5F7A2F8F
:100280007150FA01EB0FF11D6081662339F0FC011A
:10029000E70FF11DE0816E1351C0BF5FFC01E70F56
:1002A000F11D60813627222309F45AC06C3211F403
:1002B000B3944DC0B2124BC0F801EF0DF11D708127
:1002C000772309F43FC0F39467133FC0BD2C3FC0B0
:1002D000F801EF0DF11D20812111D0E0E11005C0E2
:1002E00021E0D13009F420E0D22FFC01E60FF71F06
:1002F000339720812A32F9F4FC01E60FF71F329779
:100300002081615071098C01060F171F8AE2F32EBC
:10031000F826F226F8018081F826822F0E945D00DF
:10032000E82EF80180810E945D00F0E1EF9E800DD3
:100330001124F81205C08D2F8C2B1BC080E019C032
:1003400080E017C0BD2CDC2D02C0BD2CDC2D6A2F37
:1003500070E0FC01E60FF71FE081E1118FCFB8CF0D
:100360006A2F70E0FC01E60FF71FE081E11186CFF4
:10037000BCCFDF91CF911F910F91FF90EF90DF9055
:10038000CF90BF900895EF92FF920F931F93CF935A
:10039000DF93EC01062F04C083E397E00197F1F7A8
:1003A0000E94E5038432C1F78883FF24F39410E0B0
:1003B000015011090E94FD038823E1F30E94E50327
:1003C000FE01EF0DF11D8083F3948A3029F02F2D6B
:1003D00030E02017310774F3FE01EF0DF11D10829C
:1003E0008B81823509F444C020F4873409F062C05F
:1003F00007C0863509F448C08A3509F05BC04FC094
:100400008C818C3449F1833571F0873409F054C004
:10041000E12C00E011E026E042E051E062E0CE0194
:100420000E942B014AC08D81813459F4E12C09E0EE
:1004300011E022E04BE051E064E0CE010E942B018C
:100440003CC0E12C01E011E020E042E151E068E035
:10045000CE010E942B0131C0EE24E39405E311E0AC
:1004600026E049E151E060E1CE010E942B0125C068
:10047000EE24E39405E311E022E040E251E060E283
:10048000CE010E942B0119C0E12C07E211E029E006
:1004900049E251E060E4CE010E942B010EC0E12C44
:1004A00001E011E020E040E351E060E8CE010E946D
:1004B0002B0103C080E001C080E0DF91CF911F914C
:1004C0000F91FF90EF900895169A00C01698089526
:1004D000CF93DF93D82F662311F0149A01C014989C
:1004E000159881B18F6081B9C2B1C07F8D2F82957F
:1004F0008F708C2B82B90E946402DF70DC2BD2B922
:100500000E946402CF60C2B9DF91CF910895882321
:1005100011F0149A01C01498159A81B1807F81B9A5
:10052000169A00C090B1169800C0169A00C080B10B
:1005300016989295907F8F70892B089580E00E9485
:1005400087028823DCF383E090E00197F1F780E0F5
:100550000E9487020895CF93C82F0E949E0260E0F8
:100560008C2F0E946802CF910895611104C08058B9
:100570000E94AB020895613021F480540E94AB02C6
:100580000895623021F48C560E94AB0208958C527B
:100590000E94AB02089581E00E94AB02089582E0C0
:1005A0000E94AB020895CF93C82F0E949E02CA30CA
:1005B000A1F4843148F0982F9054943138F084514C
:1005C0008C3230F484E505C080E403C084E101C0CE
:1005D00080E080580E94AB0204C061E08C2F0E9432
:1005E0006802CF910895CF93DF93EC01899188231E
:1005F00029F00E94D30289918111FBCFDF91CF9125
:1006000008951F93CF93DF93182F81B18F6781B91E
:10061000E0E3F3E73197F1F7119A109A0E94640230
:10062000E0EFF3E23197F1F70E946402C5E7D0E012
:10063000FE013197F1F70E946402FE013197F1F754
:1006400010980E9464022197F1F788E20E94AB02A1
:1006500088E00E94AB020E94CB0286E00E94AB02BF
:10066000812F0E94AB02DF91CF911F9108952FEF50
:100670008FE392E0215080409040E1F700C00000FD
:10068000789487B18FEF87B98FE00E94010360E112
:1006900081E00E94C400E4E6F0E08081896E8083FE
:1006A0000E94CB020E94CF0287E391E00E94F302F6
:1006B00061E080E00E94B5028AE491E00E94F302CA
:1006C00062E080E00E94B5028EE591E00E94F302B4
:1006D0002FEF8FE395E6215080409040E1F700C076
:1006E00000000E94CB020E94CF0260E084E00E94E2
:1006F000B50282E791E00E94F30261E080E00E948F
:10070000B5028FE791E00E94F30262E080E00E9470
:10071000B50285E891E00E94F30263E080E00E9468
:10072000B5028AE891E00E94F3022FEF8FE796E18D
:10073000215080409040E1F700C000000F2EFBEBFD
:10074000AF2EF2E0BF2EF02D6894CC24C2F80F2E0D
:10075000F7ECEF2EF2E0FF2EF02D60E884EB92E054
:100760000E94C301E5011C2D62E0812F0E94B502A9
:1007700089910E94D3021F5F1F30B1F7E7011C2D42
:1007800063E0812F0E94B50289910E94D3021F5F0E
:100790001031B1F72FEF8FE39BE021508040904064
:1007A000E1F700C0000083B7816083BF889583B7FD
:1007B0008E7F83BFD2CF9093CD008093CC00E9ECA5
:1007C000F0E080818869808308959091B3018091E1
:1007D000B201981781F08091B3018F5F8093B301CC
:1007E000882314F41092B301E091B301F0E0EC54CB
:1007F000FE4F8081089580E008952091B30190918B
:10080000B20181E0291301C080E008952091900198
:1008100030E02F5F3F4F203231053CF09091910145
:100820009923E1F31092900110C040919001209122
:10083000910150E04F5F5F4F30E042175307A9F33B
:10084000909190019F5F90939001E0919001F0E072
:10085000EE56FE4F8083E9ECF0E080818062808379
:1008600008951F920F920FB60F9211242F933F936A
:100870008F939F93EF93FF938091B20190E0019645
:10088000803891057CF08091B301882311F110929A
:10089000B201E091B201F0E08091CE00EC54FE4F45
:1008A000808319C02091B2018091B30130E02F5FA5
:1008B0003F4F90E02817390761F0E091B201EF5FF8
:1008C000E093B201F0E08091CE00EC54FE4F8083C3
:1008D00002C08091CE00FF91EF919F918F913F9147
:1008E0002F910F900FBE0F901F9018951F920F928F
:1008F0000FB60F9211248F939F93EF93FF939091D4
:10090000910180919001981791F0809191018F5FF2
:1009100080939101803210F010929101E091910149
:10092000F0E0EE56FE4F80818093CE0005C0E9ECEA
:10093000F0E080818F7D8083FF91EF919F918F9177
:0E0940000F900FBE0F901F901895F894FFCFE8
:10094E003000244750474741003100244750475359
:10095E00410024475047535600244750474C4C0003
:10096E00244750524D43004E0024475056544700E2
:10097E002447505A444100475053204C6F676765D7
:10098E00722050726F6A6563740042792048696400
:10099E006179617420616E64204D616E7500436FE4
:1009AE006D7020456E6720485457204265726C6901
:1009BE006E00506F7320616E64206469737400441E
:1009CE006973743A004C61743A004C6F6E3A0000D1
:00000001FF
