:100000000C943E000C9448000C9448000C9448005A
:100010000C9448000C9448000C9448000C94480040
:100020000C9448000C9448000C9448000C94480030
:100030000C9448000C9464000C9448000C94480004
:100040000C9448000C9448000C9448000C94480010
:100050000C9448000C9448000C9448000C94480000
:100060000C9448000C9448000C9448000C944800F0
:100070000C9448000C9448000C94480011241FBEB6
:10008000CFEFD8E0DEBFCDBF0E944A000C947300D2
:100090000C940000F894E1E8F0E0808183608083B4
:1000A00088E09DE390938900809388008081886038
:1000B0008083EFE6F0E0808182608083789487B16E
:1000C0008FEF87B9409AFFCF1F920F920FB60F9212
:1000D00011248F9388B1809588B98F910F900FBEAE
:0A00E0000F901F901895F894FFCFC1
:00000001FF
