:100000000C943E000C945B000C945B000C945B0021
:100010000C945B000C945B000C945B000C945B00F4
:100020000C945B000C945B000C945B000C945B00E4
:100030000C945B000C945B000C945B000C945B00D4
:100040000C945B000C945B000C945B000C945B00C4
:100050000C945B000C945B000C945B000C945B00B4
:100060000C945B000C945B000C945B000C945B00A4
:100070000C945B000C945B000C945B0011241FBE7D
:10008000CFEFD8E0DEBFCDBF11E0A0E0B1E0EEE3FE
:10009000FAE202C005900D92A832B107D9F723E029
:1000A000A8E2B1E001C01D92AB37B207E1F70E94B0
:1000B000A6140C941D150C9400000F931F93CF935E
:1000C000DF9342305105C0F0DB01EC019A010D9144
:1000D0001D91099319932250310922303105B8F747
:1000E000DA011297AE7F1296FC01EA0FFB1FA60FF2
:1000F000B71F4170552702C0DB01FC0141155105B6
:1001000039F04E0F5F1F8D918193E417F507D9F7F2
:10011000DF91CF911F910F9108954115510539F04D
:10012000480F591FFC016193E417F507E1F70895A3
:100130000F931F93FB01028D138D20E030E0FC0133
:100140008081833061F4FB0184899589A0E0B0E06F
:10015000DC0199278827082B192B2A2B3B2B602F92
:10016000712F822F932F1F910F910895FC01538FB0
:10017000428F758B648B0895FC01A081B18110972B
:1001800031F14C91413258F04A3391F1FD013196F1
:100190009F015191513228F05A33D1F704C0542FA6
:1001A0009D015A33B9F450E040535109FA014A30E5
:1001B000510598F4BD016F5F7F4F2617370781F413
:1001C000EF2B89F41296FC01B183A0830EC04FEF90
:1001D0005FEF0BC040E050E008C04FEF5FEF05C09D
:1001E0004FEF5FEF02C04FEF5FEF842F952F089521
:1001F0009D01D9CF0097C9F0DC01ED91FC911197D9
:100200003097A9F020812223A1F026813781129610
:100210008D919C9113972817390769F481810E9469
:100220005E1280FF0AC083E0089589E0089589E0A6
:10023000089589E0089589E0089580E008958F92F7
:100240009F92AF92BF92CF92DF92EF92FF920F9365
:100250001F93CF93DF93EC018C81882309F445C071
:10026000CAA4DBA4ECA4FDA45E018EE2A80EB11C1E
:1002700001E010E0A7019601B50189810E94811378
:10028000811135C01C828E8D9F8DA8A1B9A1B701A7
:10029000A601481B590B6A0B7B0B8E899F89A88D81
:1002A000B98D481759076A077B0718F58B80912C81
:1002B00082E088169104F8F08E899F89A88DB98D07
:1002C000C80ED91EEA1EFB1E01E010E0A701960130
:1002D000B50189810E94811381E0881A910881E02B
:1002E0008816910449F780E007C080E005C081E0EE
:1002F00003C080E001C080E0DF91CF911F910F919A
:10030000FF90EF90DF90CF90BF90AF909F908F9035
:100310000895CF92DF92EF92FF920F931F93CF93A6
:10032000DF93EC016A017B018AA59BA5ACA5BDA565
:1003300084179507A607B707B1F0CE010E941F01E9
:10034000811113C0BE01625D7F4F01E010E0A70183
:10035000960189810E942B13811109C0CAA6DBA6D0
:10036000ECA6FDA605C080E003C081E001C081E0ED
:10037000DF91CF911F910F91FF90EF90DF90CF9081
:1003800008950F931F93CF93DF93EC011C820FEF1F
:100390001FEF98010AA71BA72CA73DA70E94890160
:1003A000811124C0FE01E45DFD4F8081918185357E
:1003B0009A4AF1F4FE01EC59FF4F80819181A281AC
:1003C000B381BB2786349144A445B10599F0C05848
:1003D000DF4F488159816A817B81772781E04634EC
:1003E00051446445710539F480E005C083E003C0E1
:1003F00082E001C080E0DF91CF911F910F910895BD
:100400002F923F924F925F926F927F928F929F9224
:10041000AF92BF92CF92DF92EF92FF920F931F9312
:10042000CF93DF93CDB7DEB76D970FB6F894DEBFED
:100430000FBECDBF6C01CB01B42ED6011D921C9214
:100440000E94BC007C0199230CF431C2FC01EE0F28
:10045000FF1FE85DFE4F008111810115110509F4B0
:1004600028C2F60111830083D8018C91882369F09A
:1004700011968C910E945E1280FD07C0BB2009F48A
:100480001AC282FD1AC280E068C2F8011082E182BD
:100490008E2D0E94651280FD12C2BB2011F082FDDC
:1004A00010C240E050E0BA01C8010E94C101813091
:1004B00009F046C0EE24E394F12CEC0EFD1EF7018A
:1004C0002EEB31E040E050E0BA01D9019E96A00F3A
:1004D000B11F14968C911497882339F018968D913A
:1004E0009D910D90BC91A02D02C0DB01CA018193AA
:1004F0009193A193B193205F3F4F2E3F81E0380746
:1005000021F76E0191E1C90ED11C6894BB24B1F8AA
:10051000D7014D905D906D907D907D014114510407
:100520006104710441F0B301A201C8010E94C1013C
:10053000811102C008C08B2DEC14FD0449F703C0E3
:10054000412C512C3201833009F4BDC18111BDC150
:10055000F80181AD92AD8115924009F0B8C1F80162
:10056000EC5BFF4FC080D180E12CF12CC114D10491
:10057000E104F10439F4F801EE5AFF4FC080D18054
:10058000E280F380D8015696CD92DD92ED92FC92F6
:100590005997DE96AC91F801A3838A2F815082305F
:1005A00008F097C1F3ADF98B2F2FF8012283222396
:1005B00009F491C1822F90E09C01215031098223DE
:1005C0009323892B09F089C1FF9620803180F8019F
:1005D00031862086C1018F709927892B09F07FC150
:1005E000EF5BFF4F80809180A12CB12C811491048E
:1005F000A104B10439F4F801E25BFF4F80809180DF
:10060000A280B380F80104ACF5ADE02D309709F479
:1006100068C1B0E0A70196010E9406156A8F7B8F22
:100620008C8F9D8F9F0140E050E02E8B3F8B488F39
:10063000598FC101929582958F7089279F70892764
:10064000280F391F411D511DDA01C9012A8D3B8D2B
:100650004C8D5D8D280F391F4A1F5B1F2A8B3B8BEA
:100660004C8B5D8B82169306A406B50608F43BC13D
:10067000C501B401621B730B840B950BE9892E2F06
:1006800030E040E050E00E94E414DA01C901211595
:1006900031054105510509F428C1263FFFE03F0718
:1006A0004105510518F461E0698B02C0E2E0E98B75
:1006B000863F9F4FA105B10508F01FC1812C912CE9
:1006C0005401689481F8820E931EA41EB51ED801B1
:1006D00052968D929D92AD92BC925597F801428EA2
:1006E000538E648E758E8E899F89A88DB98D840DE9
:1006F000951DA61DB71D868F978FA0A3B1A34A890C
:100700005B896C897D89440D551D661D771D46A347
:1007100057A360A771A7F989F330C1F4232809F022
:10072000E6C0F801E65AFF4F80819181A281B38132
:10073000F80182A393A3A4A3B5A3880C991CAA1CB7
:10074000BB1C880C991CAA1CBB1C2DC0232809F4B7
:10075000D0C02A8D3B8D4C8D5D8D820F931FA41FC1
:10076000B51FF80182A393A3A4A3B5A3F989F2301E
:1007700029F4880C991CAA1CBB1C15C0A3E0B0E08E
:10078000A50194010E940615DC01CB01B695A79541
:100790009795879521E082229924AA24BB24880E6C
:1007A000991EAA1EBB1E3FEF830E31E0931EA11CB3
:1007B000B11C072E79E0B694A794979487947A9504
:1007C000D1F7702DC814D904EA04FB0408F493C0CF
:1007D0008FEF9FEFDC01F80186879787A08BB18BA5
:1007E00082879387A487B58780E88583F989F3306A
:1007F00009F04BC0F801E25AFF4F808191810197C7
:1008000009F043C0B301A2014F5F5F4F6F4F7F4FAD
:10081000C8010E948901811138C0D80115961C9227
:10082000F801E45DFD4F8081918185359A4A69F533
:10083000F80186A597A5A0A9B1A982359245A14640
:10084000B14419F5F801EE5EFD4F80819181A281DE
:10085000B38182379247A144B146B9F4F801EA5E08
:10086000FD4F80819181A281B381F80186879787AE
:10087000A08BB18BE65EFD4F80819181A281B38117
:10088000F80182879387A487B587E989D801EC931B
:1008900080912A0190912B01019690932B018093D6
:1008A0002A0117969C938E93169780E056C08BE092
:1008B00054C08CE052C080E050C08AE04EC083E05B
:1008C0004CC08AE04AC081E048C08DE046C08DE05F
:1008D00044C08DE042C08DE040C08DE03EC08DE060
:1008E0003CC08DE03AC08DE038C08DE036C08DE070
:1008F00034C08DE032C08DE030C0812C912C540189
:10090000689481F8820E931EA41EB51ED8015296DB
:100910008D929D92AD92BC925597F801428E538E66
:10092000648E758E8E899F89A88DB98D840D951DD5
:10093000A61DB71D868F978FA0A3B1A38A899B8917
:10094000AC89BD89840D951DA61DB71D86A397A3EF
:10095000A0A7B1A7F3E0F98BE1CE6D960FB6F8949E
:10096000DEBF0FBECDBFDF91CF911F910F91FF90E2
:10097000EF90DF90CF90BF90AF909F908F907F903F
:100980006F905F904F903F902F900895EF92FF925D
:100990000F931F93CF93DF93EC010E941F01982FB9
:1009A000811162C08881833009F054C08D8181300B
:1009B00009F050C07E018EE2E80EF11C40E052E0EA
:1009C00060E070E0C7010E948D00FE01E45DFD4F14
:1009D00085E59AEA9183808382E592E5A1E6B1E418
:1009E0008EA79FA7A8ABB9ABFE01EE5EFD4F82E7D5
:1009F00092E7A1E4B1E680839183A283B383FE01F1
:100A0000EA5EFD4F8E859F85A889B9898083918391
:100A1000A283B383FE01E65EFD4F8A859B85AC858C
:100A2000BD8580839183A283B3838A8D9B8DAC8D9A
:100A3000BD8D9C01AD012F5F3F4F4F4F5F4F2AA7E8
:100A40003BA74CA75DA701E010E0B70189810E9498
:100A500081131D8240E050E060E089810E94E5132F
:100A600091E0811101C090E0892FDF91CF911F911A
:100A70000F91FF90EF900895CF92DF92EF92FF9247
:100A80000F931F93FC019A01AB01225031094109D8
:100A90005109C288D388E488F58882E0C81AD10851
:100AA000E108F1082C153D054E055F0568F4A281AB
:100AB000B0E00E94061506A117A120A531A5060FDA
:100AC000171F281F391F03C000E010E09801602F96
:100AD000712F822F932F1F910F91FF90EF90DF9036
:100AE000CF900895BF92CF92DF92EF92FF920F9333
:100AF0001F93CF93DF93EC016A017B0142305105D4
:100B00006105710508F4A5C04A895B896C897D89F6
:100B1000C416D506E606F70608F0A0C08881823024
:100B200009F44AC0833009F468C0813009F09BC0E1
:100B30008601169507950C0D1D1DC801892F992753
:100B400086954E8D5F8D68A179A1480F591F611D53
:100B5000711DCE010E94890181118AC0F801F170D6
:100B6000EC0FFD1FB6A40F5F1F4FC801892F9927F7
:100B700086954E8D5F8D68A179A1480F591F611D23
:100B8000711DCE010E948901811176C01170C00FC4
:100B9000D11F9EA580E08C010B29C0FE09C01295D3
:100BA00002950F7001271F70012720E030E06FC011
:100BB0001F7020E030E06BC077276F2D5E2D4D2D2C
:100BC0008E8D9F8DA8A1B9A1480F591F6A1F7B1F49
:100BD000CE010E948901811153C0CC0CDD1CEE1C9A
:100BE000FF1C81E0D822EE24FF24FE01EC0DFD1D48
:100BF00006A517A520E030E04AC0B701A601689419
:100C000016F876956795579547951694D1F78E8D7A
:100C10009F8DA8A1B9A1480F591F6A1F7B1FCE0144
:100C20000E948901811130C0CC0CDD1CEE1CFF1C20
:100C3000CC0CDD1CEE1CFF1C81E0D822EE24FF242E
:100C4000FE01EC0DFD1D06A517A520A931A93F70D9
:100C50001EC001E010E020E030E019C001E010E02B
:100C600020E030E014C001E010E020E030E00FC0F0
:100C70000FEF1FEF98010BC00FEF1FEF980107C098
:100C80000FEF1FEF980103C00FEF1FEF9801602FC8
:100C9000712F822F932FDF91CF911F910F91FF9092
:100CA000EF90DF90CF90BF900895AF92BF92CF9218
:100CB000DF92EF92FF920F931F93CF93DF93EC019C
:100CC0008B017D836C83CE80DF80E884F98481E0B2
:100CD000C816D104E104F10409F48CC0E881F9815B
:100CE00082899389A489B589C816D906EA06FB06C4
:100CF00008F082C0C114D104E104F104C1F4808180
:100D0000833041F482A193A1A4A1B5A10097A105CC
:100D1000B10559F4808591850817190708F06EC050
:100D200062A173A184A195A137C06C017D01A2804D
:100D300080E1A89E500111240A151B0538F1B70166
:100D4000A601888199810E9472056B017C018FEF59
:100D5000C816D806E806F80609F452C082E0C8169C
:100D6000D104E104F10408F44DC0E881F9818289DD
:100D70009389A489B589C816D906EA06FB0608F046
:100D800043C00A191B090A151B05C8F6B701A601BD
:100D9000888199810E943C05CA86DB86EC86FD86A7
:100DA000611571058105910589F1980132952295AA
:100DB0002F7023273F702327DC01CB01820F931F65
:100DC000A11DB11D8E879F87A88BB98B0F7011272E
:100DD000C801880F991F82959295907F9827807FF0
:100DE00098278E9628813981820F931F9B8B8A8B3F
:100DF00080E00DC082E00BC082E009C082E007C045
:100E000081E005C082E003C082E001C082E0DF91A2
:100E1000CF911F910F91FF90EF90DF90CF90BF90F7
:100E2000AF9008954F925F926F927F928F929F92B0
:100E3000AF92BF92CF92DF92EF92FF920F931F93E8
:100E4000CF93DF93EC012A013B016801790152E065
:100E5000451651046104710408F4D7C08A899B893E
:100E6000AC89BD89481659066A067B0608F0CFC0D2
:100E70008881823009F469C0833009F488C08130E8
:100E800009F0BFC0820116950795040D151DC80114
:100E9000892F992786954E8D5F8D68A179A1480F7E
:100EA000591F611D711DCE010E9489018111AAC0C7
:100EB000C8019170812C912C540183948420952039
:100EC000A620B72040FE0BC0FE01E80FF91F46A583
:100ED0004F7050E1C59E90011124242B01C02C2D90
:100EE000FE01E80FF91F26A70F5F1F4F81E08C83DB
:100EF000C801892F992786954E8D5F8D68A179A1AC
:100F0000480F591F611D711DCE010E948901811179
:100F100079C0117089288A288B2849F0689413F8C1
:100F2000F694E794D794C7941694D1F709C0FE01BC
:100F3000E00FF11F96A5907F2D2D2F70C22EC92A8C
:100F4000FE01E00FF11FC6A65DC07727672D562D65
:100F5000452D8E8D9F8DA8A1B9A1480F591F6A1FDD
:100F60007B1FCE010E94890181114CC0440C551C8D
:100F7000661C771C91E05922662477245EE2450EB8
:100F8000511CFE01E40DF51DD182C0823BC0B301AE
:100F9000A201689416F8769567955795479516942B
:100FA000D1F78E8D9F8DA8A1B9A1480F591F6A1F37
:100FB0007B1FCE010E948901811124C0440C551C65
:100FC000661C771C440C551C661C771C91E059224A
:100FD000662477245EE2450E511CFE01E40DF51DEA
:100FE0004081518162817381442755276627707F34
:100FF000C42AD52AE62AF72AC082D182E282F38265
:1010000001C082E091E09C8303C082E001C082E0E5
:10101000DF91CF911F910F91FF90EF90DF90CF90D4
:10102000BF90AF909F908F907F906F905F904F9008
:1010300008952F923F924F925F926F927F928F927C
:101040009F92AF92BF92CF92DF92EF92FF920F9357
:101050001F93CF93DF9300D000D0CDB7DEB71C0134
:1010600049835A836B837C83452B462B472BC1F4E2
:10107000DC011A968D909D90AD90BC901D978114C7
:101080009104A104B10489F152968D919D910D9026
:10109000BC91A02D88169906AA06BB0658F52EC04D
:1010A00049815A816B817C810E9472058B019C0170
:1010B000623071058105910508F4AFC06F3FBFEF45
:1010C0007B078B079B0709F4BCC0F10182899389D8
:1010D000A489B589081719072A073B0708F4B1C086
:1010E00089809A80AB80BC8009C0812C912C5401EE
:1010F000839404C0812C912C540183947501640164
:10110000412C512C3201689441F8FFEFCF1ADF0ACD
:10111000EF0AFF0AF10182899389A489B589C8166B
:10112000D906EA06FB0648F0F2E08F169104A10406
:10113000B10408F477C073016201B701A601C101CF
:101140000E9472058B019C01611571058105910555
:1011500099F00F3F8FEF18072807380709F471C07F
:10116000013011052105310509F46BC0C814D904FB
:10117000EA04FB0451F65AC08C2C9D2CAE2CBF2CDB
:101180000FEF1FEF2FEF3FE04C2D5D2D6E2D7F2DCC
:10119000C1010E94120781113AC089819A81AB81F5
:1011A000BC810097A105B10559F00C2D1D2D2E2DE8
:1011B0003F2DAC01BD01C1010E941207811127C062
:1011C000D1011A968C921A971B969C921B971C968B
:1011D000AC921C971D96BC921D971E968D919D9169
:1011E0000D90BC91A02D8F3FEFEF9E07AE07BE077D
:1011F00009F10197A109B109F10186879787A08BB1
:10120000B18B858181608583970186011AC0813009
:10121000A1F40FEF1FEF980114C001E010E020E0EF
:1012200030E00FC000E010E098010BC000E010E0DB
:10123000980107C09701860104C001E010E020E09A
:1012400030E0602F712F822F932F0F900F900F900F
:101250000F90DF91CF911F910F91FF90EF90DF9052
:10126000CF90BF90AF909F908F907F906F905F9046
:101270004F903F902F9008957F928F929F92AF92C0
:10128000BF92CF92DF92EF92FF920F931F93CF9373
:10129000DF93EC017B010C811D810F5F1F4F09F46F
:1012A000EBC08E859F85A889B9890097A105B105F6
:1012B00009F4E4C00F2EFFE0CF2ED12CF02DC02278
:1012C000D122C114D10409F0C0C00196A11DB11DE5
:1012D0008E879F87A88BB98B4A855B856C857D85BA
:1012E000411551056105710549F4E881F981808551
:1012F00091850817190708F0C3C0A7C0E881F981D4
:10130000828190E001979801329522952F702327D2
:101310003F70232782239323892B09F096C0CF01A6
:101320000E9472054B015C0182E088169104A104C1
:10133000B10408F4A7C0EFEF8E169E06AE06BE06F7
:1013400009F4A2C0E881F98182899389A489B589C9
:1013500088169906AA06BB0608F469C0EF2809F4A6
:1013600095C04A855B856C857D85CF010E941908F3
:101370004B015C01611571058105910509F488C077
:10138000613071058105910509F484C08FEF8816DD
:101390009806A806B80609F47FC0888199810E9442
:1013A0001F0181117BC08881998140E052E060E09B
:1013B00070E08E960E948D00E880F980B501A4014E
:1013C000C7010E943C05F70162A773A784A795A7F0
:1013D000E12CF12C7724739417C074828881998151
:1013E0000E941F0181115CC0E881F98182A593A54B
:1013F000A4A5B5A50196A11DB11D82A793A7A4A779
:10140000B5A7FFEFEF1AFF0AE881F981828190E02A
:10141000E816F90610F382A593A5A4A5B5A58E1923
:101420009F09A109B10982A793A7A4A7B5A78A8696
:101430009B86AC86BD86B501A401888199810E94F6
:101440003C056E877F87888B998B1D830C83CC0C22
:10145000DD1CCC0CDD1CCC0CDD1CCC0CDD1CCC0C48
:10146000DD1C8EE2C80ED11C88819981C80ED91E60
:10147000DB8ACA8A80E015C084E013C084E011C012
:1014800084E00FC082E00DC081E00BC084E009C0A1
:1014900087E007C082E005C081E003C081E001C0B1
:1014A00081E0DF91CF911F910F91FF90EF90DF903E
:1014B000CF90BF90AF909F908F907F9008952F9284
:1014C0003F924F925F926F927F928F929F92AF92D4
:1014D000BF92CF92DF92EF92FF920F931F93CF9321
:1014E000DF9300D000D01F92CDB7DEB76C018B0127
:1014F000DB018C918F3211F08C3511F40F5F1F4F8F
:10150000F6011682178210861186D8018C918032DE
:1015100048F460E070E0C6010E945506F601138AA7
:10152000128A45C10F2EFBE04F2E512CF02DE12CDD
:10153000F12C6894662463F8712CB12C69827A824C
:10154000A42C5B820F2EF2E02F2EF1E03F2EF02D27
:10155000DD82CC82F8012C813D814F0181918F3257
:10156000E1F38C35D1F33D832C83D9015496CD9092
:10157000DC905597A20160E270E0C6010E948D00E8
:10158000C7019701B301BB2DF401E20FF31FA08146
:1015900089010F5F1F4FA13208F4E7C0AF3209F491
:1015A000E9C0AC3509F4E6C0AE3209F4D2C0861702
:1015B000970708F0BEC008C0BB0FBB0F9801898118
:1015C0009A816A2D7B81E0CFAA230CF4B3604A2F65
:1015D00041584F3118F04F554D31E0F4F401E00F10
:1015E000F11F10812E5F3F4F412F40544F3320F0A9
:1015F00040544D3708F09FC0AB014150510984174A
:10160000950708F09AC0F601E80FF91FA08311832F
:101610000296BACF4A2F50E04232510509F48FC0EA
:10162000F1019C018191882309F498C090E048174A
:101630005907C1F786E0BBC0B26006C02A2F215609
:101640002A3110F4B160A052F601E80FF91FA0830F
:101650000196980199CF892B09F473C0F601808116
:10166000853E11F445E040836830710519F4B32FCD
:10167000BB0FBB0F8B2F8370813009F42061BC70CE
:10168000B43009F42860D6011B962C93B7018C81E5
:101690009D810E945506811172C0CC80DD80F601CB
:1016A0004685578560897189808191810E94890171
:1016B000811167C0D60152966D917C915397FB01C1
:1016C0009081992309F466C0938593FD13C05496C5
:1016D0004D915C9155979B01255F3F4FDA01460183
:1016E00004C0E217F30709F45CC0D1909D91D916AC
:1016F000C1F36401B701C6010E943C09882379F255
:1017000040C092FF20C084E052C0DB011B968C9148
:1017100084FF1BC0EC81FD81808191810E94980033
:10172000AC81BD8116966D937D938D939C93199793
:1017300011CF86E03CC086E03AC086E038C086E043
:1017400036C086E034C085E032C085E030C086E037
:101750002EC06830710509F42FCFF9CFC9012A2FA7
:1017600021542A3108F468CF69CF080D191D3B2F89
:1017700024E071CF080D191D3B2F2B2D6CCFCC8091
:10178000DD80D6015496ED91FC9155979385843078
:1017900071F4B7CFD6015496ED91FC91559793858E
:1017A000B0CF9D828C82FA01938592FFAECF0F90CD
:1017B0000F900F900F900F90DF91CF911F910F918D
:1017C000FF90EF90DF90CF90BF90AF909F908F9061
:1017D0007F906F905F904F903F902F9008951F9350
:1017E000CF93DF93EC0160E070E00E945506182F64
:1017F00081111AC04E855F856889798988819981B0
:101800000E948901182F81110FC0EA89FB8980810C
:10181000853E71F0882361F061E070E0CE010E94A6
:101820003C09182F882331F3143011F1111121C014
:101830004E855F8568897989888199810E948901AF
:10184000182F811116C040E250E060E070E08A89F4
:101850009B890E948D006C897D894BE050E08A89CC
:101860009B890E945D00E881F98181E0848301C049
:1018700017E0812FDF91CF911F9108958F929F9252
:10188000AF92BF92CF92DF92EF92FF920F931F938E
:10189000CF93DF93EC016A017B0142305105610572
:1018A000710508F44EC08A899B89AC89BD894817A7
:1018B00059076A077B0708F046C0B701A601CE01A9
:1018C0000E9472054B015C0161157105810591054E
:1018D000E1F191E089169104A104B104C1F18FEF07
:1018E00088169806A806B806A1F100E010E0980155
:1018F000B701A601CE010E94120781112BC04E85AF
:101900005F85688979894F3F9FEF59076907790794
:1019100059F04F5F5F4F6F4F7F4F4E875F87688BE8
:10192000798B9D8191609D83750164014A895B89F2
:101930006C897D8984169506A606B70608F4BDCF86
:1019400009C082E007C082E005C080E003C082E0F9
:1019500001C081E0DF91CF911F910F91FF90EF9037
:10196000DF90CF90BF90AF909F908F9008951F937E
:10197000CF93DF9300D000D000D0CDB7DEB79C83EB
:101980008B837E836D83142F7A836983CE010196C6
:101990000E94BC00992334F1FC01EE0FFF1FE85DAB
:1019A000FE4F0190F081E02D309709F01082EB811D
:1019B000FC813097E9F010822B813C81FC01EE0F15
:1019C000FF1FE85DFE4F31832083232B69F0113028
:1019D00069F440E0BE016B5F7F4FCE0103960E9429
:1019E00000020EC08BE00CC080E00AC080E008C09E
:1019F000FC01EE0FFF1FE85DFE4F1182108280E0B8
:101A000026960FB6F894DEBF0FBECDBFDF91CF9103
:101A10001F9108954F925F926F927F92AF92BF9203
:101A2000CF92DF92EF92FF920F931F93CF93DF93AA
:101A3000CDB7DEB7A8970FB6F894DEBF0FBECDBF07
:101A40008C017CA36BA3F42E009709F4D4C0DC01B5
:101A50001D921C924E71BE016D5D7F4FCE010196AD
:101A60000E940002B82E8111EDC00F2EFFE1AF2EB3
:101A7000F02DAF20CE0147969E8B8D8B6BA17CA164
:101A8000CE0101960E945F0ACB88DC888111BEC01E
:101A9000C114D10409F0B4C0B8C0882379F08430EF
:101AA00009F0C2C0CE0101960E94EF0BB8E0AB2A4C
:101AB000CB88DC88882349F0B82EC4C0F601838522
:101AC000817109F0A8C0F2FCABC0A3FE54C00E9413
:101AD000DF14D6011E966D937D938D939C93519741
:101AE0001B961C92F601148E158E168E178EB6015B
:101AF00089819A810E9498002B013C0140E050E0CE
:101B0000BA01C6010E94B600E981FA8181E08483AE
:101B1000411451046104710471F182A593A5A4A537
:101B2000B5A58DA39EA3AFA3B8A7B301A201CF0112
:101B30000E943E0C81117AC089819A81A1E04A1AE3
:101B4000510861087108FC014286538664867586D7
:101B50004DA15EA16FA178A50E9489010AC0D6019E
:101B60001B968C9184FD64C0F1FE05C080FD64C0AD
:101B700002C0811166C0A3FE02C0B0E2AB2AE980B8
:101B8000FA80F70182A593A5A4A5B5A5F801828FD7
:101B9000938FA48FB58FD78EC68EA4821582B6017F
:101BA000C7010E949800D8011E966D937D938D9376
:101BB0009C935197F601448D558D668D778D1A96BD
:101BC0004D935D936D937C931D97F8011682178258
:101BD0001086118656961D921D921D921C92599741
:101BE0001196FC92EE92F7018681978113969C9351
:101BF0008E93129727C00F2EF9E0BF2EF02D22C032
:101C00008F2D8C7109F05ACFAACF86E09F2D9C7141
:101C100009F043CFAECF0F2EF7E0BF2EF02D12C04C
:101C20006894BB24B3F80EC0B82E0CC0B82E0AC0FE
:101C30006894BB24B2F806C00F2EF7E0BF2EF02D3B
:101C400001C0B82E8B2DA8960FB6F894DEBF0FBE3C
:101C5000CDBFDF91CF911F910F91FF90EF90DF905B
:101C6000CF90BF90AF907F906F905F904F9008950E
:101C70002F923F924F925F926F927F928F929F929C
:101C8000AF92BF92CF92DF92EF92FF920F931F938A
:101C9000CF93DF9300D000D0CDB7DEB79C838B838A
:101CA000962E172F7A016901D9011D921C920E946C
:101CB000FA00382E8111D3C1EB81FC81858181111D
:101CC000C8C1848181FFC7C186819781A085B18504
:101CD000AC01BD014E0D5F1D611D711D48175907F7
:101CE0006A077B0708F499C1E114F10409F495C16E
:101CF000A92CB12E22242394EB81FC81868197812B
:101D0000A085B185AC01BD01517066277727452BB1
:101D1000462B472B09F027C120813181AC01BD0141
:101D2000032E39E076956795579547953A95D1F703
:101D3000302DF90112811150142309F050C0892B64
:101D40008A2B8B2BD1F4AB81BC811E966D917D913A
:101D50008D919C9151976115710581059105F1F463
:101D600040E050E0BA01C9010E941908EB81FC81F2
:101D700066877787808B918B0BC0AB81BC81529635
:101D80004D915D916D917C915597C9010E94190803
:101D9000611571058105910509F43FC16130710537
:101DA0008105910541F482E0EB81FC818583689493
:101DB000332431F854C16F3FFFEF7F078F079F0730
:101DC00041F481E0AB81BC8115968C93332433942C
:101DD00046C1EB81FC81628B738B848B958BAB81CD
:101DE000BC812D913C91F90182A593A5A4A5B5A52F
:101DF000EB81FC8146895789608D718D8417950729
:101E0000A607B70769F4C9010E941F01882341F0A2
:101E100081E0AB81BC8115968C93332433941FC130
:101E2000EB81FC810190F081E02DFA83E983AB81A5
:101E3000BC8152964D915D916D917C915597CF01EA
:101E40000E943C05611571058105910541F482E010
:101E5000EB81FC8185836894332431F800C12B0128
:101E60003C01410E511C611C711C4701892C9924B5
:101E700086948114910409F44BC0A981BA81129609
:101E80004C919401210F311D842F90E0821793070C
:101E900018F44C01811A91088401A3019201B50143
:101EA000E981FA8181810E948113882341F081E0D8
:101EB000AB81BC8115968C9333243394D0C0AB8115
:101EC000BC81ED91FC9142A553A564A575A544196B
:101ED000550966097709C401A0E0B0E04817590721
:101EE0006A077B0788F4542F4427550FB501640F08
:101EF000751F40E052E0CF018E960E945D00AB81DD
:101F0000BC81ED91FC911482982C8824990C69C0B5
:101F1000EB81FC814681578160857185828593853F
:101F2000A485B585481759076A077B07B0F08981F2
:101F30009A810E941F01882341F081E0AB81BC811E
:101F400015968C93332433948AC0AB81BC81ED9178
:101F5000FC9142A653A664A675A6EB81FC81468A35
:101F6000578A608E718EEB81FC8186819781A08576
:101F7000B1859170AA27BB2720E032E0281B390BDE
:101F800047012E153F0508F44901AB81BC815696E7
:101F90004D915D916D917C9159978D919C910E948D
:101FA0008901882339F081E0EB81FC81858333242A
:101FB000339455C0EB81FC8186819781A085B185E2
:101FC0009170AA27BB278E9620813181A401B5018B
:101FD000820F931F0E945D00AB81BC81ED91FC914B
:101FE0002482A80CB91CEB81FC8186819781A08595
:101FF000B185880D991DA11DB11D86839783A0878A
:10200000B187D6018D919C911197880D991D8D9363
:102010009C93E818F90809F06FCEEB81FC8186816A
:102020009781A085B185428553856485758548175C
:1020300059076A077B0720F482879387A487B587AF
:10204000AB81BC8114968C911497806214968C930A
:1020500006C0382E04C00F2EF7E03F2EF02D832D42
:102060000F900F900F900F90DF91CF911F910F91D4
:10207000FF90EF90DF90CF90BF90AF909F908F90A8
:102080007F906F905F904F903F902F9008950F93A7
:102090001F93CF93DF93EC010E94FA00811136C0A9
:1020A0009C8195FF33C04A8D5B8D6C8D7D8D8881C1
:1020B00099810E948901811129C00E8D1F8DF8011F
:1020C0008385806283878A859B85AC85BD85848F67
:1020D000958FA68FB78F4E855F8568897989C801EE
:1020E0000E94B6000E94DF14F801668B778B808F08
:1020F000918F138A128A8C818F7D8C83E881F9817C
:1021000081E08483888199810E94C604DF91CF9108
:102110001F910F910895CF93DF93EC010E94471018
:10212000811107C0CE010E94FA00811102C01982FC
:102130001882DF91CF91089523B10197E9F70895AF
:10214000FC01680F791F8191882314F42D9A01C036
:102150002D982F9A2F9886FF02C02D9A01C02D9896
:102160002F9A2F9885FF02C02D9A01C02D982F9A83
:102170002F9884FF02C02D9A01C02D982F9A2F9876
:1021800083FF02C02D9A01C02D982F9A2F9882FFAD
:1021900002C02D9A01C02D982F9A2F9881FF02C05E
:1021A0002D9A01C02D982F9A2F9880FF02C02D9A4A
:1021B00001C02D982F9A2F98E617F70721F608955A
:1021C000FC012D9A680F791F83B12F9A2F9886FBF7
:1021D000882780F9880F1E998F5F2F9A2F98880F74
:1021E0001E998F5F2F9A2F98880F1E998F5F2F9AB5
:1021F0002F98880F1E998F5F2F9A2F98880F1E99FE
:102200008F5F2F9A2F98880F1E998F5F2F9A2F9884
:10221000880F1E998F5F2F9A2F988193E617F707E3
:1022200099F608950F931F93CF93DF931F92CDB725
:10223000DEB708E813E161E070E0CE0101960E948C
:10224000E01089818F3F39F084E690E00E949C1075
:102250000150110981F721E030E0012B11F420E059
:1022600030E0822F932F0F90DF91CF911F910F912C
:102270000895CF93DF931F92CDB7DEB72B9A61E01D
:1022800070E0CE0101960E94E0100F90DF91CF9197
:102290000895CF93DF931F92CDB7DEB72B9861E0FF
:1022A00070E0CE0101960E94E0100E941211892B6D
:1022B00029F40E94391120E030E002C021E030E032
:1022C000822F932F0F90DF91CF910895CF92DF92BD
:1022D000EF92FF920F931F93CF93DF9300D0CDB770
:1022E000DEB77C016B0108EE13E061E070E0CE0127
:1022F00001960E94E01089818F3F39F484E690E0D6
:102300000E949C100150110981F789818E3F69F468
:10231000B601C7010E94E01062E070E0CE010196B4
:102320000E94E01021E030E002C020E030E0822F87
:10233000932F0F900F90DF91CF911F910F91FF90EE
:10234000EF90DF90CF900895FF920F931F93CF935C
:10235000DF9300D0CDB7DEB78C01F62E0E941211AC
:10236000892B21F1F98261E070E0CE0101960E9493
:10237000A0108DEFF816E9F060E072E0C8010E944D
:10238000A01062E070E0CE0101960E94E01061E0D2
:1023900070E0CE0101960E94E01089818F7121E0EA
:1023A00030E0853041F020E030E005C020E030E052
:1023B00002C021E030E0822F932F0F900F90DF9129
:1023C000CF911F910F91FF900895DF92EF92FF92AE
:1023D0000F931F93CF93DF93CDB7DEB727970FB639
:1023E000F894DEBF0FBECDBF182F042FF52EE62EBA
:1023F000D72E882354F440E050E0BA0187E30E94CE
:10240000E511823008F04CC01F771C3081F10E942A
:1024100039110E944911892B41F1812F80648A83EF
:10242000DB82EC82FD820E83112389F1183031F1B9
:1024300081E08F8366E070E0CE0102960E94A010DA
:102440001C3031F461E070E0CE0101960E94E01092
:102450001AE061E070E0CE0101960E94E0108981EF
:102460008823F4F41150A9F71BC08FEF19C08CE436
:102470008A83DB82EC82FD820E83DACF87E88F834A
:1024800066E070E0CE0102960E94A010E1CF85E9DF
:102490008F8366E070E0CE0102960E94A010D8CF34
:1024A00027960FB6F894DEBF0FBECDBFDF91CF9158
:1024B0001F910F91FF90EF90DF900895811103C05D
:1024C00080910001089581E00895EF92FF920F93AB
:1024D0001F93CF93DF9300D000D0CDB7DEB781112B
:1024E000ADC080E197E20E949C10239A2B9A279A14
:1024F0002F98259A1AE061E070E0CE0101960E94C3
:10250000E0101150C1F740E050E0BA0180E00E94B5
:10251000E511813009F077C04AEA51E060E070E0EF
:1025200088E00E94E5118130D9F564E070E0CE01C9
:1025300001960E94E0108B81813009F066C08C8189
:102540008A3A09F064C008EE13E040E050E060E031
:1025500070E489EA0E94E511882349F088EE93E04F
:102560000E949C100150110981F7F12C5DC0012BD4
:1025700009F44FC040E050E0BA018AE30E94E5113F
:10258000811149C064E070E0CE0101960E94E01024
:10259000898186FF42C00F2EFCE0FF2EF02D44C043
:1025A00040E050E0BA0189EA0E94E511823040F42F
:1025B0000F2EF9EAEF2EF02D6894FF24F1F804C0F5
:1025C000EE24E394FF24F39408EE13E040E050E09F
:1025D000BA018E2D0E94E511882349F088EE93E020
:1025E0000E949C100150110989F7F12C1DC0012B8C
:1025F000C1F040E052E060E070E080E10E94E5114F
:10260000811111C011C0F12C0FC0F12C0DC0F12CA3
:102610000BC0F12C09C0F12C07C06894FF24F2F81C
:1026200003C0F12C01C0F12CF0922C0111E0F1104B
:1026300010E0109300010E94391101C013E0812FB6
:102640000F900F900F900F90DF91CF911F910F91EE
:10265000FF90EF900895BF92CF92DF92EF92FF929A
:102660000F931F93CF93DF93EB0169017A010E94CF
:102670005E1280FD3BC080912C0183FD09C00B2EB2
:10268000B9E0CC0CDD1CEE1CFF1CBA95D1F7B02DC7
:102690000230110528F00F2EF2E1BF2EF02D04C0FC
:1026A0000F2EF1E1BF2EF02DB701A6018B2D0E9458
:1026B000E511811114C060E072E0CE010E94661144
:1026C000892B21F0DE5F01501109A9F782E1B812D0
:1026D00006C040E050E0BA018CE00E94E5110E9483
:1026E000391181E0012B19F480E001C083E0DF9112
:1026F000CF911F910F91FF90EF90DF90CF90BF90FF
:102700000895CF92DF92EF92FF920F931F93CF9392
:10271000DF93EB0169017A010E945E1280FD4BC0DC
:1027200080912C0183FD09C00B2EB9E0CC0CDD1C7F
:10273000EE1CFF1CBA95D1F7B02D0130110591F4B4
:10274000B701A60188E10E94E51181112DC06EEF4D
:10275000CE010E94A41101E010E0892B29F100E0D4
:1027600010E022C0867031F0A80160E070E087E9D7
:102770000E94E511B701A60189E10E94E5118111CE
:1027800013C06CEFCE010E94A411892B21F0DE5FF3
:1027900001501109B1F76DEF80E090E00E94A411A3
:1027A000892B11F401E010E00E94391181E0012B26
:1027B00019F480E001C083E0DF91CF911F910F9168
:1027C000FF90EF90DF90CF900895CF92DF92EF923D
:1027D000FF920F931F93CF93DF93CDB7DEB7609730
:1027E0000FB6F894DEBF0FBECDBFF62E8A010E9451
:1027F0005E1280FD9AC0CC24C394FC1489F0FC14B2
:1028000038F00F2EF3E0DF2EF02DFD1086C07AC0D9
:102810000E94491111E0892B09F484C010E082C0A4
:1028200040E050E0BA0189E00E94E511811177C0D3
:1028300060E170E0CE0101960E946611892B09F4D7
:1028400070C089818295869586958370813021F547
:1028500088858F7390E0A0E0B0E0DC01992788279D
:102860000196A11DB11D398520E04A85240F311D37
:10287000820F931FA11DB11D072E7AE0880F991FAB
:10288000AA1FBB1F7A95D1F7702DF8018083918321
:10289000A283B38310E046C049854295469546958C
:1028A0004370888550E0F4E08F9F400D511D112446
:1028B0004F5F5F4F2F812370922F990F990F80E008
:1028C000480F591F60E070E09E819F708B85881FC4
:1028D0008827881F980F9E5F8A858370880F890FCD
:1028E00090E009976A017B0104C0CC0CDD1CEE1C52
:1028F000FF1C8A95D2F7F801C082D182E282F3826E
:1029000010E010C080E890E0A0E0B0E0F801808323
:102910009183A283B38310E005C014E003C011E0EB
:1029200001C011E00E94391101C013E0812F6096AF
:102930000FB6F894DEBF0FBECDBFDF91CF911F91D0
:102940000F91FF90EF90DF90CF900895CF93DF939A
:1029500000D0CDB7DEB72FE784E89EE1215080405C
:102960009040E1F700C00000789487B18FEF87B9FD
:1029700040E067E271E08DE291E00E94B70C4AE02E
:1029800060E171E08BE593E00E940A0D811116C0B1
:102990009E012F5F3F4F4BE050E06CE171E08BE513
:1029A00093E00E94380E8BE593E00E948B108981A2
:1029B0009A810B9719F488B18FEF88B9FFCF60E047
:1029C00070E08CEF92E40895A1E21A2EAA1BBB1BC3
:1029D000FD010DC0AA1FBB1FEE1FFF1FA217B307EB
:1029E000E407F50720F0A21BB30BE40BF50B661F01
:1029F000771F881F991F1A9469F7609570958095C5
:102A000090959B01AC01BD01CF0108950E94111565
:102A1000A59F900DB49F900DA49F800D911D112432
:102A20000895A29FB001B39FC001A39F01D0B29FA0
:0E2A3000700D811D1124911D0895F894FFCFA3
:102A3E0001222A2B2C3A3B3C3D3E3F5B5D7C7F00C6
:102A4E006E657766696C652E7478740049742077AC
:082A5E006F726B73210D0A0079
:00000001FF
