S0110000746573745F6C6173742E7372656340
S11300000C9481000C949E000C949E000C949E0011
S11300100C949E000C949E000C949E000C949E00E4
S11300200C949E000C949E000C949E000C949E00D4
S11300300C949E000C949E000C949E000C949E00C4
S11300400C949E000C949E000C949E000C949E00B4
S11300500C949E000C949E000C949E000C949E00A4
S11300600C949E000C949E000C949E000C949E0094
S11300700C94941F0C94D91F0C949E00084AD73BEF
S11300803BCE016E84BCBFFDC12F3D6C74319ABD63
S113009056833DDA3D00C77F11BED9E4BB4C3E9187
S11300A06BAAAABE000000803F05A84CCDB2D44E76
S11300B0B93836A9020C50B9918688083CA6AAAA78
S11300C02ABE000000803F494E46494E4954594ECD
S11300D0414E000020410000C84200401C4620BCA4
S11300E0BE4CCA1B0E5AAEC59D74CDCCCC3D0AD7AE
S11300F0233C17B7D13877CC2B329595E6241FB122
S11301004F0A11241FBECFEFD8E0DEBFCDBF12E0EF
S1130110A0E0B1E0EAE5FFE402C005900D92A43747
S1130120B107D9F726E0A4E7B2E001C01D92A137D8
S1130130B207E1F70E94071D0C94AB270C94000052
S1130140DF92EF92FF920F931F93CF93DF93EC0113
S1130150A0E0B0E027E030E000E010E080E090E0D4
S1130160EE24E394F12C1097F9F4FE01E20FF31F4F
S1130170D080E3E5DE1621F0EEE4DE120DC008C007
S1130180F0927702E09276022E5F3F4FD701EBCFD9
S11301902E5F3F4FD701E7CFFB01E80FF91FD08255
S11301A001962F5F3F4FDFCFFE01E20FF31FD08098
S11301B0E7E5DE1621F0E5E4DE1208C023C021E005
S11301C030E030937502209374021CC0FA01E00FF2
S11301D0F11FD0820F5F1F4F2F5F3F4FC4CF11928B
S11301E001968D309105D9F7C80101978D3091059D
S11301F08CF4FA01E80FF91F119201968D309105E4
S1130200D9F708C001978D30910574F7FB01E80F09
S1130210F91FE5CFDF91CF911F910F91FF90EF90E0
S1130220DF900895FF920F931F93CF93DF93F62EE1
S11302300E94FD22062F172FD82FC92F81E4F8160C
S113024011F18FE4F8123DC080917402909175020F
S1130250892BB9F1202F312F4D2F5C2F602F712F57
S11302608D2F9C2F0E940920262F372F482F592F7E
S1130270602F712F8D2F9C2F0E940820062F172F7F
S1130280D82FC92F1EC08091760290917702892BB6
S1130290C1F0202F312F4D2F5C2F602F712F8D2F08
S11302A09C2F0E940920262F372F482F592F602F6B
S11302B0712F8D2F9C2F0E940820062F172FD82FC7
S11302C0C92F602F712F8D2F9C2FDF91CF911F91FC
S11302D00F91FF90089525E33AEF4EE85CE30E9406
S11302E0EE2108952F923F924F925F926F927F92E8
S11302F08F929F92AF92BF92CF92DF92EF92FF9232
S11303000F931F93CF93DF93CDB7DEB728970FB624
S1130310F894DEBF0FBECDBF4B015A01390127014E
S11303202C2C3D2CA901B5010E94A000A701B80105
S1130330C4010E94A00061E4C5010E9412014B01A6
S11303405C016FE4C3010E94120169837A838B8389
S11303509C8361E4C8010E9412016B017C016FE47B
S1130360C2010E9412016D837E838F839887A50149
S11303709401C701B6010E9408200E946B012B0161
S11303803C0129813A814B815C816D817E818F8121
S113039098850E9408200E946B0169837A838B836D
S11303A09C83C501B4010E946B014B015C01C70130
S11303B0B6010E946B016B017C0120E030E040E05B
S11303C05FE3C301B2010E94EE210E9451222B017E
S11303D03C0120E030E040E05FE369817A818B8179
S11303E09C810E94EE210E94512269837A838B832F
S11303F09C83C501B4010E94CF204B015C01C7015D
S1130400B6010E94CF206B017C01A3019201C301BC
S1130410B2010E94EE212B013C0129813A814B81DA
S11304205C81CA01B9010E94EE21A50194010E94D8
S1130430EE21A70196010E94EE219B01AC01C301AC
S1130440B2010E940920A62EB72E082F192F762F4D
S1130450272F3B2D402F512F60E070E080E89FE371
S11304600E9408200E945B226B017C016A2D7B2D77
S1130470802F912F0E945B22A70196010E947C206D
S11304809B01AC010E94092020E038E147EC55E4CF
S11304900E94EE219F938F937F936F9381E091E06D
S11304A09F938F933F922F920E9401230FB6F8944B
S11304B0DEBF0FBECDBF28960FB6F894DEBF0FBEC9
S11304C0CDBFDF91CF911F910F91FF90EF90DF90FF
S11304D0CF90BF90AF909F908F907F906F905F90E0
S11304E04F903F902F9008950F931F93CF93DF93D6
S11304F042305105C0F0DB01EC019A010D911D91D0
S1130500099319932250310922303105B8F7DA01E1
S11305101297AE7F1296FC01EA0FFB1FA60FB71FBE
S11305204170552702C0DB01FC014115510539F02A
S11305304E0F5F1F8D918193E417F507D9F7DF9173
S1130540CF911F910F9108954115510539F0480F2E
S1130550591FFC016193E417F507E1F708950F9320
S11305601F93FB01028D138D20E030E0FC0180819C
S1130570833061F4FB0184899589A0E0B0E0DC015B
S113058099278827082B192B2A2B3B2B602F712F97
S1130590822F932F1F910F910895FC01538F428F47
S11305A0758B648B0895FC01A081B181109731F1A2
S11305B04C91413258F04A3391F1FD0131969F013B
S11305C05191513228F05A33D1F704C0542F9D0170
S11305D05A33B9F450E040535109FA014A305105F5
S11305E098F4BD016F5F7F4F2617370781F4EF2B17
S11305F089F41296FC01B183A0830EC04FEF5FEF24
S11306000BC040E050E008C04FEF5FEF05C04FEF74
S11306105FEF02C04FEF5FEF842F952F08959D0188
S1130620D9CF0097C9F0DC01ED91FC911197309777
S1130630A9F020812223A1F02681378112968D9181
S11306409C9113972817390769F481810E94BF1A76
S113065080FF0AC083E0089589E0089589E0089541
S113066089E0089589E0089580E008958F929F922B
S1130670AF92BF92CF92DF92EF92FF920F931F93AC
S1130680CF93DF93EC018C81882309F445C0CAA47D
S1130690DBA4ECA4FDA45E018EE2A80EB11C01E073
S11306A010E0A7019601B50189810E94E21B811126
S11306B035C01C828E8D9F8DA8A1B9A1B701A6015A
S11306C0481B590B6A0B7B0B8E899F89A88DB98DAA
S11306D0481759076A077B0718F58B80912C82E02D
S11306E088169104F8F08E899F89A88DB98DC80E5B
S11306F0D91EEA1EFB1E01E010E0A7019601B50118
S113070089810E94E21B81E0881A910881E08816A1
S1130710910449F780E007C080E005C081E003C090
S113072080E001C080E0DF91CF911F910F91FF9095
S1130730EF90DF90CF90BF90AF909F908F900895EF
S1130740CF92DF92EF92FF920F931F93CF93DF9399
S1130750EC016A017B018AA59BA5ACA5BDA5841704
S11307609507A607B707B1F0CE010E9436038111A1
S113077013C0BE01625D7F4F01E010E0A701960146
S113078089810E948C1B811109C0CAA6DBA6ECA634
S1130790FDA605C080E003C081E001C081E0DF91D7
S11307A0CF911F910F91FF90EF90DF90CF9008951C
S11307B00F931F93CF93DF93EC011C820FEF1FEF76
S11307C098010AA71BA72CA73DA70E94A00381118B
S11307D024C0FE01E45DFD4F8081918185359A4AF4
S11307E0F1F4FE01EC59FF4F80819181A281B38124
S11307F0BB2786349144A445B10599F0C058DF4F16
S1130800488159816A817B81772781E0463451444C
S11308106445710539F480E005C083E003C082E0DB
S113082001C080E0DF91CF911F910F9108952F9225
S11308303F924F925F926F927F928F929F92AF926C
S1130840BF92CF92DF92EF92FF920F931F93CF93B9
S1130850DF93CDB7DEB76D970FB6F894DEBF0FBE4A
S1130860CDBF6C01CB01B42ED6011D921C920E9407
S1130870D3027C0199230CF431C2FC01EE0FFF1F5B
S1130880E858FD4F008111810115110509F428C2B2
S1130890F60111830083D8018C91882369F01196A5
S11308A08C910E94BF1A80FD07C0BB2009F41AC2B4
S11308B082FD1AC280E068C2F8011082E1828E2DA6
S11308C00E94C61A80FD12C2BB2011F082FD10C224
S11308D040E050E0BA01C8010E94D803813009F019
S11308E046C0EE24E394F12CEC0EFD1EF7012EEB32
S11308F031E040E050E0BA01D9019E96A00FB11F4B
S113090014968C911497882339F018968D919D91A3
S11309100D90BC91A02D02C0DB01CA01819391937B
S1130920A193B193205F3F4F2E3F81E0380721F719
S11309306E0191E1C90ED11C6894BB24B1F8D701B2
S11309404D905D906D907D907D0141145104610442
S1130950710441F0B301A201C8010E94D8038111BE
S113096002C008C08B2DEC14FD0449F703C0412CD0
S1130970512C3201833009F4BDC18111BDC1F8018C
S113098081AD92AD8115924009F0B8C1F801EC5BDC
S1130990FF4FC080D180E12CF12CC114D104E104BB
S11309A0F10439F4F801EE5AFF4FC080D180E2809F
S11309B0F380D8015696CD92DD92ED92FC92599730
S11309C0DE96AC91F801A3838A2F8150823008F01F
S11309D097C1F3ADF98B2F2FF8012283222309F459
S11309E091C1822F90E09C012150310982239323ED
S11309F0892B09F089C1FF9620803180F801318666
S1130A002086C1018F709927892B09F07FC1EF5B84
S1130A10FF4F80809180A12CB12C81149104A104FA
S1130A20B10439F4F801E25BFF4F80809180A28029
S1130A30B380F80104ACF5ADE02D309709F468C13A
S1130A40B0E0A70196010E94E6226A8F7B8F8C8F0B
S1130A509D8F9F0140E050E02E8B3F8B488F598F34
S1130A60C101929582958F7089279F708927280FDD
S1130A70391F411D511DDA01C9012A8D3B8D4C8D51
S1130A805D8D280F391F4A1F5B1F2A8B3B8B4C8BB4
S1130A905D8B82169306A406B50608F43BC1C50116
S1130AA0B401621B730B840B950BE9892E2F30E084
S1130AB040E050E00E94C422DA01C9012115310549
S1130AC04105510509F428C1263FFFE03F074105D0
S1130AD0510518F461E0698B02C0E2E0E98B863FBE
S1130AE09F4FA105B10508F01FC1812C912C540121
S1130AF0689481F8820E931EA41EB51ED8015296E6
S1130B008D929D92AD92BC925597F801428E538E70
S1130B10648E758E8E899F89A88DB98D840D951DDF
S1130B20A61DB71D868F978FA0A3B1A34A895B89A1
S1130B306C897D89440D551D661D771D46A357A3F9
S1130B4060A771A7F989F330C1F4232809F0E6C03E
S1130B50F801E65AFF4F80819181A281B381F801A7
S1130B6082A393A3A4A3B5A3880C991CAA1CBB1CA1
S1130B70880C991CAA1CBB1C2DC0232809F4D0C0C6
S1130B802A8D3B8D4C8D5D8D820F931FA41FB51F45
S1130B90F80182A393A3A4A3B5A3F989F23029F49D
S1130BA0880C991CAA1CBB1C15C0A3E0B0E0A501CD
S1130BB094010E94E622DC01CB01B695A795979596
S1130BC0879521E082229924AA24BB24880E991EA9
S1130BD0AA1EBB1E3FEF830E31E0931EA11CB11C65
S1130BE0072E79E0B694A794979487947A95D1F7D1
S1130BF0702DC814D904EA04FB0408F493C08FEFE1
S1130C009FEFDC01F80186879787A08BB18B8287E1
S1130C109387A487B58780E88583F989F33009F041
S1130C204BC0F801E25AFF4F80819181019709F08E
S1130C3043C0B301A2014F5F5F4F6F4F7F4FC801A5
S1130C400E94A003811138C0D80115961C92F801A6
S1130C50E45DFD4F8081918185359A4A69F5F801FB
S1130C6086A597A5A0A9B1A982359245A146B1440C
S1130C7019F5F801EE5EFD4F80819181A281B38167
S1130C8082379247A144B146B9F4F801EA5EFD4FB8
S1130C9080819181A281B381F80186879787A08B97
S1130CA0B18BE65EFD4F80819181A281B381F80111
S1130CB082879387A487B587E989D801EC938091CB
S1130CC07A0290917B02019690937B0280937A0240
S1130CD017969C938E93169780E056C08BE054C071
S1130CE08CE052C080E050C08AE04EC083E04CC02B
S1130CF08AE04AC081E048C08DE046C08DE044C02F
S1130D008DE042C08DE040C08DE03EC08DE03CC02F
S1130D108DE03AC08DE038C08DE036C08DE034C03F
S1130D208DE032C08DE030C0812C912C5401689448
S1130D3081F8820E931EA41EB51ED80152968D9280
S1130D409D92AD92BC925597F801428E538E648E5B
S1130D50758E8E899F89A88DB98D840D951DA61DCC
S1130D60B71D868F978FA0A3B1A38A899B89AC896D
S1130D70BD89840D951DA61DB71D86A397A3A0A7A5
S1130D80B1A7F3E0F98BE1CE6D960FB6F894DEBF10
S1130D900FBECDBFDF91CF911F910F91FF90EF90C8
S1130DA0DF90CF90BF90AF909F908F907F906F9087
S1130DB05F904F903F902F900895EF92FF920F9382
S1130DC01F93CF93DF93EC010E943603982F811178
S1130DD062C08881833009F054C08D81813009F06C
S1130DE050C07E018EE2E80EF11C40E052E060E06B
S1130DF070E0C7010E94A402FE01E45DFD4F85E599
S1130E009AEA9183808382E592E5A1E6B1E48EA714
S1130E109FA7A8ABB9ABFE01EE5EFD4F82E792E758
S1130E20A1E4B1E680839183A283B383FE01EA5EE9
S1130E30FD4F8E859F85A889B98980839183A2837C
S1130E40B383FE01E65EFD4F8A859B85AC85BD8537
S1130E5080839183A283B3838A8D9B8DAC8DBD8D5A
S1130E609C01AD012F5F3F4F4F4F5F4F2AA73BA718
S1130E704CA75DA701E010E0B70189810E94E21B45
S1130E801D8240E050E060E089810E94461C91E0B0
S1130E90811101C090E0892FDF91CF911F910F91B3
S1130EA0FF90EF900895CF92DF92EF92FF920F930D
S1130EB01F93FC019A01AB012250310941095109E8
S1130EC0C288D388E488F58882E0C81AD108E1088A
S1130ED0F1082C153D054E055F0568F4A281B0E0CC
S1130EE00E94E62206A117A120A531A5060F171F0F
S1130EF0281F391F03C000E010E09801602F712FF4
S1130F00822F932F1F910F91FF90EF90DF90CF903E
S1130F100895BF92CF92DF92EF92FF920F931F93A7
S1130F20CF93DF93EC016A017B01423051056105E7
S1130F30710508F4A5C04A895B896C897D89C4164A
S1130F40D506E606F70608F0A0C08881823009F4C9
S1130F504AC0833009F468C0813009F09BC086011F
S1130F60169507950C0D1D1DC801892F9927869587
S1130F704E8D5F8D68A179A1480F591F611D711DA8
S1130F80CE010E94A00381118AC0F801F170EC0F18
S1130F90FD1FB6A40F5F1F4FC801892F992786959F
S1130FA04E8D5F8D68A179A1480F591F611D711D78
S1130FB0CE010E94A003811176C01170C00FD11F11
S1130FC09EA580E08C010B29C0FE09C012950295F4
S1130FD00F7001271F70012720E030E06FC01F70E1
S1130FE020E030E06BC077276F2D5E2D4D2D8E8D68
S1130FF09F8DA8A1B9A1480F591F6A1F7B1FCE015D
S11310000E94A003811153C0CC0CDD1CEE1CFF1CFC
S113101081E0D822EE24FF24FE01EC0DFD1D06A57F
S113102017A520E030E04AC0B701A601689416F87D
S113103076956795579547951694D1F78E8D9F8D24
S1131040A8A1B9A1480F591F6A1F7B1FCE010E9496
S1131050A003811130C0CC0CDD1CEE1CFF1CCC0C99
S1131060DD1CEE1CFF1C81E0D822EE24FF24FE01CF
S1131070EC0DFD1D06A517A520A931A93F701EC0C2
S113108001E010E020E030E019C001E010E020E0D1
S113109030E014C001E010E020E030E00FC00FEFBA
S11310A01FEF98010BC00FEF1FEF980107C00FEF60
S11310B01FEF980103C00FEF1FEF9801602F712FEE
S11310C0822F932FDF91CF911F910F91FF90EF907B
S11310D0DF90CF90BF900895AF92BF92CF92DF92EE
S11310E0EF92FF920F931F93CF93DF93EC018B0149
S11310F07D836C83CE80DF80E884F98481E0C81628
S1131100D104E104F10409F48CC0E881F9818289F5
S11311109389A489B589C816D906EA06FB0608F09E
S113112082C0C114D104E104F104C1F4808183308C
S113113041F482A193A1A4A1B5A10097A105B10591
S113114059F4808591850817190708F06EC062A1CB
S113115073A184A195A137C06C017D01A28080E1B7
S1131160A89E500111240A151B0538F1B701A601E8
S1131170888199810E9489076B017C018FEFC816D1
S1131180D806E806F80609F452C082E0C816D1046D
S1131190E104F10408F44DC0E881F981828993895E
S11311A0A489B589C816D906EA06FB0608F043C027
S11311B00A191B090A151B05C8F6B701A60188817F
S11311C099810E945307CA86DB86EC86FD866115E9
S11311D071058105910589F19801329522952F7049
S11311E023273F702327DC01CB01820F931FA11D0E
S11311F0B11D8E879F87A88BB98B0F701127C801EB
S1131200880F991F82959295907F9827807F9827C1
S11312108E9628813981820F931F9B8B8A8B80E065
S11312200DC082E00BC082E009C082E007C081E00B
S113123005C082E003C082E001C082E0DF91CF916B
S11312401F910F91FF90EF90DF90CF90BF90AF90E0
S113125008954F925F926F927F928F929F92AF9276
S1131260BF92CF92DF92EF92FF920F931F93CF938F
S1131270DF93EC012A013B016801790152E0451634
S113128051046104710408F4D7C08A899B89AC892C
S1131290BD89481659066A067B0608F0CFC08881C6
S11312A0823009F469C0833009F488C0813009F0C0
S11312B0BFC0820116950795040D151DC801892F1D
S11312C0992786954E8D5F8D68A179A1480F591F86
S11312D0611D711DCE010E94A0038111AAC0C80125
S11312E09170812C912C5401839484209520A62004
S11312F0B72040FE0BC0FE01E80FF91F46A54F7052
S113130050E1C59E90011124242B01C02C2DFE0117
S1131310E80FF91F26A70F5F1F4F81E08C83C801D8
S1131320892F992786954E8D5F8D68A179A1480FE5
S1131330591F611D711DCE010E94A003811179C046
S1131340117089288A288B2849F0689413F8F69438
S1131350E794D794C7941694D1F709C0FE01E00F1F
S1131360F11F96A5907F2D2D2F70C22EC92AFE0144
S1131370E00FF11FC6A65DC07727672D562D452DBA
S11313808E8D9F8DA8A1B9A1480F591F6A1F7B1F7D
S1131390CE010E94A00381114CC0440C551C661C54
S11313A0771C91E05922662477245EE2450E511C95
S11313B0FE01E40DF51DD182C0823BC0B301A20140
S11313C0689416F876956795579547951694D1F7CE
S11313D08E8D9F8DA8A1B9A1480F591F6A1F7B1F2D
S11313E0CE010E94A003811124C0440C551C661C2C
S11313F0771C440C551C661C771C91E0592266240A
S113140077245EE2450E511CFE01E40DF51D40817A
S1131410518162817381442755276627707FC42ACE
S1131420D52AE62AF72AC082D182E282F38201C059
S113143082E091E09C8303C082E001C082E0DF91FE
S1131440CF911F910F91FF90EF90DF90CF90BF90BD
S1131450AF909F908F907F906F905F904F90089582
S11314602F923F924F925F926F927F928F929F92B0
S1131470AF92BF92CF92DF92EF92FF920F931F939E
S1131480CF93DF9300D000D0CDB7DEB71C014983E2
S11314905A836B837C83452B462B472BC1F4DC0199
S11314A01A968D909D90AD90BC901D9781149104D7
S11314B0A104B10489F152968D919D910D90BC9136
S11314C0A02D88169906AA06BB0658F52EC0498198
S11314D05A816B817C810E9489078B019C01623057
S11314E071058105910508F4AFC06F3FBFEF7B071D
S11314F08B079B0709F4BCC0F10182899389A489F5
S1131500B589081719072A073B0708F4B1C0898071
S11315109A80AB80BC8009C0812C912C54018394A7
S113152004C0812C912C5401839475016401412CD5
S1131530512C3201689441F8FFEFCF1ADF0AEF0A09
S1131540FF0AF10182899389A489B589C816D9064D
S1131550EA06FB0648F0F2E08F169104A104B104F8
S113156008F477C073016201B701A601C1010E94AA
S113157089078B019C01611571058105910599F01D
S11315800F3F8FEF18072807380709F471C001309F
S113159011052105310509F46BC0C814D904EA0406
S11315A0FB0451F65AC08C2C9D2CAE2CBF2C0FEF93
S11315B01FEF2FEF3FE04C2D5D2D6E2D7F2DC101D0
S11315C00E94290981113AC089819A81AB81BC8129
S11315D00097A105B10559F00C2D1D2D2E2D3F2D81
S11315E0AC01BD01C1010E942909811127C0D101AB
S11315F01A968C921A971B969C921B971C96AC92E7
S11316001C971D96BC921D971E968D919D910D90D1
S1131610BC91A02D8F3FEFEF9E07AE07BE0709F1E7
S11316200197A109B109F10186879787A08BB18B36
S1131630858181608583970186011AC08130A1F478
S11316400FEF1FEF980114C001E010E020E030E03C
S11316500FC000E010E098010BC000E010E098011A
S113166007C09701860104C001E010E020E030E0EB
S1131670602F712F822F932F0F900F900F900F9048
S1131680DF91CF911F910F91FF90EF90DF90CF905A
S1131690BF90AF909F908F907F906F905F904F908E
S11316A03F902F9008957F928F929F92AF92BF9216
S11316B0CF92DF92EF92FF920F931F93CF93DF931A
S11316C0EC017B010C811D810F5F1F4F09F4EBC0FE
S11316D08E859F85A889B9890097A105B10509F46C
S11316E0E4C00F2EFFE0CF2ED12CF02DC022D1224A
S11316F0C114D10409F0C0C00196A11DB11D8E878B
S11317009F87A88BB98B4A855B856C857D85411540
S113171051056105710549F4E881F9818085918558
S11317200817190708F0C3C0A7C0E881F9818281AE
S113173090E001979801329522952F7023273F70EE
S1131740232782239323892B09F096C0CF010E947B
S113175089074B015C0182E088169104A104B1045D
S113176008F4A7C0EFEF8E169E06AE06BE0609F477
S1131770A2C0E881F98182899389A489B5898816F0
S11317809906AA06BB0608F469C0EF2809F495C0B7
S11317904A855B856C857D85CF010E94300A4B01AB
S11317A05C01611571058105910509F488C06130FA
S11317B071058105910509F484C08FEF8816980698
S11317C0A806B80609F47FC0888199810E9436036F
S11317D081117BC08881998140E052E060E070E033
S11317E08E960E94A402E880F980B501A401C70185
S11317F00E945307F70162A773A784A795A7E12C5A
S1131800F12C7724739417C07482888199810E9483
S1131810360381115CC0E881F98182A593A5A4A552
S1131820B5A50196A11DB11D82A793A7A4A7B5A72D
S1131830FFEFEF1AFF0AE881F981828190E0E81650
S1131840F90610F382A593A5A4A5B5A58E199F0941
S1131850A109B10982A793A7A4A7B5A78A869B86E5
S1131860AC86BD86B501A401888199810E94530785
S11318706E877F87888B998B1D830C83CC0CDD1C32
S1131880CC0CDD1CCC0CDD1CCC0CDD1CCC0CDD1C10
S11318908EE2C80ED11C88819981C80ED91EDB8ABC
S11318A0CA8A80E015C084E013C084E011C084E0DB
S11318B00FC082E00DC081E00BC084E009C087E066
S11318C007C082E005C081E003C081E001C081E07F
S11318D0DF91CF911F910F91FF90EF90DF90CF9008
S11318E0BF90AF909F908F907F9008952F923F92DA
S11318F04F925F926F927F928F929F92AF92BF921C
S1131900CF92DF92EF92FF920F931F93CF93DF93C7
S113191000D000D01F92CDB7DEB76C018B01DB0184
S11319208C918F3211F08C3511F40F5F1F4FF6013B
S11319301682178210861186D8018C91803248F461
S113194060E070E0C6010E946C08F601138A128AF6
S113195045C10F2EFBE04F2E512CF02DE12CF12C24
S11319606894662463F8712CB12C69827A82A42C61
S11319705B820F2EF7E02F2EF1E03F2EF02DDD825B
S1131980CC82F8012C813D814F0181918F32E1F3AA
S11319908C35D1F33D832C83D9015496CD90DC90C2
S11319A05597A20160E270E0C6010E94A402C7013B
S11319B09701B301BB2DF401E20FF31FA08189014C
S11319C00F5F1F4FA13208F4E7C0AF3209F4E9C03A
S11319D0AC3509F4E6C0AE3209F4D2C086179707D5
S11319E008F0BEC008C0BB0FBB0F980189819A8163
S11319F06A2D7B81E0CFAA230CF4B3604A2F4158AF
S1131A004F3118F04F554D31E0F4F401E00FF11F60
S1131A1010812E5F3F4F412F40544F3320F04054EC
S1131A204D3708F09FC0AB01415051098417950709
S1131A3008F09AC0F601E80FF91FA08311830296FB
S1131A40BACF4A2F50E04232510509F48FC0F10158
S1131A509C018191882309F498C090E048175907A4
S1131A60C1F786E0BBC0B26006C02A2F21562A31D6
S1131A7010F4B160A052F601E80FF91FA08301969B
S1131A80980199CF892B09F473C0F6018081853EB2
S1131A9011F445E040836830710519F4B32FBB0F8E
S1131AA0BB0F8B2F8370813009F42061BC70B4307C
S1131AB009F42860D6011B962C93B7018C819D8173
S1131AC00E946C08811172C0CC80DD80F6014685CD
S1131AD0578560897189808191810E94A003811159
S1131AE067C0D60152966D917C915397FB0190810A
S1131AF0992309F466C0938593FD13C054964D91C0
S1131B005C9155979B01255F3F4FDA01460104C064
S1131B10E217F30709F45CC0D1909D91D916C1F383
S1131B206401B701C6010E94530B882379F240C0B7
S1131B3092FF20C084E052C0DB011B968C9184FF8D
S1131B401BC0EC81FD81808191810E94AF02AC8138
S1131B50BD8116966D937D938D939C93199711CFA8
S1131B6086E03CC086E03AC086E038C086E036C0F5
S1131B7086E034C085E032C085E030C086E02EC007
S1131B806830710509F42FCFF9CFC9012A2F2154E8
S1131B902A3108F468CF69CF080D191D3B2F24E0C2
S1131BA071CF080D191D3B2F2B2D6CCFCC80DD8000
S1131BB0D6015496ED91FC9155979385843071F438
S1131BC0B7CFD6015496ED91FC9155979385B0CF3C
S1131BD09D828C82FA01938592FFAECF0F900F9075
S1131BE00F900F900F90DF91CF911F910F91FF9065
S1131BF0EF90DF90CF90BF90AF909F908F907F90A9
S1131C006F905F904F903F902F9008951F93CF93C4
S1131C10DF93EC0160E070E00E946C08182F8111E2
S1131C201AC04E855F8568897989888199810E9467
S1131C30A003182F81110FC0EA89FB898081853E9A
S1131C4071F0882361F061E070E0CE010E94530BD3
S1131C50182F882331F3143011F1111121C04E854E
S1131C605F8568897989888199810E94A003182FEA
S1131C70811116C040E250E060E070E08A899B89DF
S1131C800E94A4026C897D894BE050E08A899B897B
S1131C900E947402E881F98181E0848301C017E025
S1131CA0812FDF91CF911F9108958F929F92AF92D0
S1131CB0BF92CF92DF92EF92FF920F931F93CF9335
S1131CC0DF93EC016A017B01423051056105710526
S1131CD008F44EC08A899B89AC89BD894817590785
S1131CE06A077B0708F046C0B701A601CE010E942F
S1131CF089074B015C016115710581059105E1F1CD
S1131D0091E089169104A104B104C1F18FEF881602
S1131D109806A806B806A1F100E010E09801B70102
S1131D20A601CE010E94290981112BC04E855F8531
S1131D30688979894F3F9FEF59076907790759F0F7
S1131D404F5F5F4F6F4F7F4F4E875F87688B798BF5
S1131D509D8191609D83750164014A895B896C89C9
S1131D607D8984169506A606B70608F4BDCF09C07A
S1131D7082E007C082E005C080E003C082E001C0C9
S1131D8081E0DF91CF911F910F91FF90EF90DF9051
S1131D90CF90BF90AF909F908F9008951F93CF9353
S1131DA0DF9300D000D000D0CDB7DEB79C838B8307
S1131DB07E836D83142F7A836983CE0101960E94FA
S1131DC0D302992334F1FC01EE0FFF1FE858FD4FB5
S1131DD00190F081E02D309709F01082EB81FC81B5
S1131DE03097E9F010822B813C81FC01EE0FFF1F3C
S1131DF0E858FD4F31832083232B69F0113069F4B7
S1131E0040E0BE016B5F7F4FCE0103960E94170432
S1131E100EC08BE00CC080E00AC080E008C0FC016A
S1131E20EE0FFF1FE858FD4F1182108280E02696C6
S1131E300FB6F894DEBF0FBECDBFDF91CF911F91D7
S1131E4008954F925F926F927F92AF92BF92CF921A
S1131E50DF92EF92FF920F931F93CF93DF93CDB74F
S1131E60DEB7A8970FB6F894DEBF0FBECDBF8C01C6
S1131E707CA36BA3F42E009709F4D4C0DC011D925B
S1131E801C924E71BE016D5D7F4FCE0101960E9482
S1131E901704B82E8111EDC00F2EFFE1AF2EF02DE7
S1131EA0AF20CE0147969E8B8D8B6BA17CA1CE017A
S1131EB001960E94760CCB88DC888111BEC0C114C7
S1131EC0D10409F0B4C0B8C0882379F0843009F093
S1131ED0C2C0CE0101960E94060EB8E0AB2ACB88A0
S1131EE0DC88882349F0B82EC4C0F601838581714B
S1131EF009F0A8C0F2FCABC0A3FE54C00E94391F75
S1131F00D6011E966D937D938D939C9351971B964A
S1131F101C92F601148E158E168E178EB6018981C9
S1131F209A810E94AF022B013C0140E050E0BA01CB
S1131F30C6010E94CD02E981FA8181E084834114C3
S1131F4051046104710471F182A593A5A4A5B5A5FA
S1131F508DA39EA3AFA3B8A7B301A201CF010E9492
S1131F60550E81117AC089819A81A1E04A1A5108DB
S1131F7061087108FC0142865386648675864DA10A
S1131F805EA16FA178A50E94A0030AC0D6011B968A
S1131F908C9184FD64C0F1FE05C080FD64C002C064
S1131FA0811166C0A3FE02C0B0E2AB2AE980FA80C8
S1131FB0F70182A593A5A4A5B5A5F801828F938FF7
S1131FC0A48FB58FD78EC68EA4821582B601C701A1
S1131FD00E94AF02D8011E966D937D938D939C93BE
S1131FE05197F601448D558D668D778D1A964D93D4
S1131FF05D936D937C931D97F8011682178210866A
S1132000118656961D921D921D921C9259971196F7
S1132010FC92EE92F7018681978113969C938E939E
S1132020129727C00F2EF9E0BF2EF02D22C08F2D5E
S11320308C7109F05ACFAACF86E09F2D9C7109F0CC
S113204043CFAECF0F2EF7E0BF2EF02D12C0689411
S1132050BB24B3F80EC0B82E0CC0B82E0AC06894C6
S1132060BB24B2F806C00F2EF7E0BF2EF02D01C03E
S1132070B82E8B2DA8960FB6F894DEBF0FBECDBF39
S1132080DF91CF911F910F91FF90EF90DF90CF9050
S1132090BF90AF907F906F905F904F9008953F9264
S11320A04F925F926F927F928F929F92AF92BF9264
S11320B0CF92DF92EF92FF920F931F93CF93DF9310
S11320C000D000D0CDB7DEB79C838B83962E172F1C
S11320D07A016901D9011D921C920E941103382EC4
S11320E0811157C1EB81FC81858181114CC18481AF
S11320F080FF4BC182859385A485B5854681578130
S113210060857185841B950BA60BB70BA70160E056
S113211070E084179507A607B70708F47C01E1145B
S1132120F10409F436C1A92CB12EEB81FC8186811E
S11321309781A085B185AC01BD01517066277727D1
S1132140452B462B472B09F0C7C020813181AC01B8
S1132150BD01032E39E076956795579547953A95D5
S1132160D1F7302DF901128111501423C9F5892BAF
S11321708A2B8B2B49F4AB81BC811E966D917D918A
S11321808D919C91519709C0EB81FC8142895389BF
S113219064897589C9010E948907623071058105C6
S11321A0910548F482E0AB81BC8115968C936894C8
S11321B0332431F8EEC06F3FBFEF7B078B079B07DB
S11321C039F481E0EB81FC81858333243394E1C0CD
S11321D0AB81BC8152966D937D938D939C9355975F
S11321E0EB81FC810190F081E02DFA83E983AB81DE
S11321F0BC8152964D915D916D917C915597CF0123
S11322000E945307611571058105910541F482E02F
S1132210EB81FC8185836894332431F8BAC02B01A7
S11322203C01410E511C611C711C4701892C9924ED
S113223086948114910409F449C0A981BA81129643
S11322404C919401210F311D842F90E08217930744
S113225018F44C01811A91088401A3019201B5017B
S1132260E981FA8181810E948C1B882341F081E0FD
S1132270AB81BC8115968C93332433948AC0AB8193
S1132280BC81ED91FC9184818823E1F082A593A522
S1132290A4A5B5A584199509A609B709A40160E008
S11322A070E084179507A607B70760F4BF01625D65
S11322B07F4F982F8827990F40E052E08A0D9B1D8D
S11322C00E947402982C8824990C40C0EB81FC81F4
S11322D0468A578A608E718EEB81FC818681978154
S11322E0A085B1859170AA27BB2720E032E0281B86
S11322F0390B47012E153F0508F44901AB81BC8118
S113230056964D915D916D917C9159978D919C91CB
S11323100E94A003882339F081E0EB81FC8185834E
S11323203324339436C0EB81FC8186819781A08568
S1132330B1859170AA27BB278E9620813181B9017E
S1132340680F791FA401C5010E947402A80CB91C6E
S1132350EB81FC8186819781A085B185880D991DCB
S1132360A11DB11D86839783A087B187D6018D9166
S11323709C911197880D991D8D939C93E818F908E9
S113238009F0D3CE06C0382E04C00F2EF7E03F2E3E
S1132390F02D832D0F900F900F900F90DF91CF9120
S11323A01F910F91FF90EF90DF90CF90BF90AF906F
S11323B09F908F907F906F905F904F903F90089583
S11323C02F923F924F925F926F927F928F929F9241
S11323D0AF92BF92CF92DF92EF92FF920F931F932F
S11323E0CF93DF9300D000D0CDB7DEB79C838B832F
S11323F0962E172F7A016901D9011D921C920E9411
S11324001103382E8111D3C1EB81FC8185818111A7
S1132410C8C1848181FFC7C186819781A085B185A8
S1132420AC01BD014E0D5F1D611D711D481759079B
S11324306A077B0708F499C1E114F10409F495C112
S1132440A92CB12E22242394EB81FC8186819781CF
S1132450A085B185AC01BD01517066277727452B56
S1132460462B472B09F027C120813181AC01BD01E6
S1132470032E39E076956795579547953A95D1F7A8
S1132480302DF90112811150142309F050C0892B09
S11324908A2B8B2BD1F4AB81BC811E966D917D91DF
S11324A08D919C9151976115710581059105F1F408
S11324B040E050E0BA01C9010E94300AEB81FC817E
S11324C066877787808B918B0BC0AB81BC815296DA
S11324D04D915D916D917C915597C9010E94300A8F
S11324E0611571058105910509F43FC161307105DC
S11324F08105910541F482E0EB81FC818583689438
S1132500332431F854C16F3FFFEF7F078F079F07D4
S113251041F481E0AB81BC8115968C9333243394D0
S113252046C1EB81FC81628B738B848B958BAB8171
S1132530BC812D913C91F90182A593A5A4A5B5A5D3
S1132540EB81FC8146895789608D718D84179507CD
S1132550A607B70769F4C9010E943603882341F02E
S113256081E0AB81BC8115968C93332433941FC1D5
S1132570EB81FC810190F081E02DFA83E983AB814A
S1132580BC8152964D915D916D917C915597CF018F
S11325900E945307611571058105910541F482E09C
S11325A0EB81FC8185836894332431F800C12B01CD
S11325B03C01410E511C611C711C4701892C99245A
S11325C086948114910409F44BC0A981BA811296AE
S11325D04C919401210F311D842F90E082179307B1
S11325E018F44C01811A91088401A3019201B501E8
S11325F0E981FA8181810E94E21B882341F081E014
S1132600AB81BC8115968C9333243394D0C0AB81B9
S1132610BC81ED91FC9142A553A564A575A544190F
S1132620550966097709C401A0E0B0E048175907C5
S11326306A077B0788F4542F4427550FB501640FAC
S1132640751F40E052E0CF018E960E947402AB8168
S1132650BC81ED91FC911482982C8824990C69C05A
S1132660EB81FC81468157816085718582859385E4
S1132670A485B585481759076A077B07B0F0898197
S11326809A810E943603882341F081E0AB81BC81AA
S113269015968C93332433948AC0AB81BC81ED911D
S11326A0FC9142A653A664A675A6EB81FC81468ADA
S11326B0578A608E718EEB81FC8186819781A0851B
S11326C0B1859170AA27BB2720E032E0281B390B83
S11326D047012E153F0508F44901AB81BC8156968C
S11326E04D915D916D917C9159978D919C910E9432
S11326F0A003882339F081E0EB81FC8185833324B6
S1132700339455C0EB81FC8186819781A085B18586
S11327109170AA27BB278E9620813181A401B5012F
S1132720820F931F0E947402AB81BC81ED91FC91D6
S11327302482A80CB91CEB81FC8186819781A08539
S1132740B185880D991DA11DB11D86839783A0872E
S1132750B187D6018D919C911197880D991D8D9308
S11327609C93E818F90809F06FCEEB81FC8186810F
S11327709781A085B1854285538564857585481701
S113278059076A077B0720F482879387A487B58754
S1132790AB81BC8114968C911497806214968C93AF
S11327A006C0382E04C00F2EF7E03F2EF02D832DE7
S11327B00F900F900F900F90DF91CF911F910F9179
S11327C0FF90EF90DF90CF90BF90AF909F908F904D
S11327D07F906F905F904F903F902F9008950F934C
S11327E01F93CF93DF93EC010E941103811136C034
S11327F09C8195FF33C04A8D5B8D6C8D7D8D888166
S113280099810E94A003811129C00E8D1F8DF801AA
S11328108385806283878A859B85AC85BD85848F0B
S1132820958FA68FB78F4E855F8568897989C80192
S11328300E94CD020E94391FF801668B778B808F2E
S1132840918F138A128A8C818F7D8C83E881F98120
S113285081E08483888199810E94DD06DF91CF9194
S11328601F910F910895CF93DF93EC010E94EF1312
S1132870811107C0CE010E941103811102C0198287
S11328801882DF91CF9108952F923F924F925F92D9
S11328906F927F928F929F92AF92BF92CF92DF926C
S11328A0EF92FF921F93CF93DF9300D000D000D01C
S11328B0CDB7DEB79E838D836A017B010E9411032D
S11328C0182F8111A7C1AD81BE8115968C911597E2
S11328D081119FC11A968D919D910D90BC91A02D4F
S11328E08C159D05AE05BF0538F4ED81FE8124816C
S11328F021FD02C06C017D01AD81BE8116968D90D3
S11329009D90AD90BC901997FD0116821782108698
S11329101186C114D104E104F10409F47BC12080BF
S11329203180D10112968C9190E0A0E0B0E02C01AE
S11329303D01032E39E0440C551C661C771C3A9566
S1132940D1F7302D81149104A104B10409F440C0DD
S1132950B1E08B1A9108A108B108C701B601615012
S1132960710981099109A30192010E94C42229835A
S11329703A834B835C83C501B401A30192010E9495
S1132980C42289819A81AB81BC8182179307A407F1
S1132990B507F0F088279927DC0184199509A60961
S11329A0B70988229922AA22BB22AD81BE8116963C
S11329B08D929D92AD92BC921997C818D908EA08D5
S11329C0FB0852966D917D918D919C91559737C0DE
S11329D0ED81FE8166857785808991896115710510
S11329E08105910531F540E050E0BA01C1010E9432
S11329F0300A613071058105910539F482E0AD81B9
S1132A00BE8115968C9312E005C16F3FBFEF7B0723
S1132A108B079B0731F481E0ED81FE81858311E012
S1132A20F9C0AD81BE811E966D937D938D939C9369
S1132A305197ED81FE81628B738B848B958B61152D
S1132A4071058105910509F4AEC04C145D046E0452
S1132A507F0408F06AC0AB01BC012D803E80D10127
S1132A6014962C91149721FF0CC08D919C910E9477
S1132A70300AAB01BC01411551056105710541F4F2
S1132A804EC0F101808191810E948907AB01BC0194
S1132A904F3FFFEF5F076F077F0731F481E0D101FC
S1132AA015968C9311E0B6C042305105610571054D
S1132AB060F0D101ED91FC9182889388A488B58857
S1132AC0481559056A057B0528F082E0F1018583E4
S1132AD012E0A0C0D10152964D935D936D937C9307
S1132AE0559716968D909D90AD90BC901997840C37
S1132AF0951CA61CB71CF10186829782A086B1861C
S1132B00C418D508E608F7084C145D046E047F0465
S1132B1008F4A5CFCB01BA013E822D8206C0CB01B9
S1132B20BA013E822D8273016201AD81BE81169687
S1132B308D909D90AD90BC9019978C0C9D1CAE1CF3
S1132B40BF1CFD0186829782A086B186812C912CC0
S1132B5054018A9493948C209D20AE20BF20892810
S1132B608A288B2821F1AB01BC01808191810E94CC
S1132B705307611571058105910539F482E0AD8132
S1132B80BE8115968C9312E045C00B2EB9E0F694E5
S1132B90E794D794C794BA95D1F7B02DC60ED71E33
S1132BA0E81EF91E07C0C12CD12C760103C0C12C2C
S1132BB0D12C7601ED81FE8186819781A085B18536
S1132BC0AC01BD01517066277727452B462B472B57
S1132BD069F046895789608D718D4C155D056E05C8
S1132BE07F0521F0C68AD78AE08EF18EED81FE81C1
S1132BF04285538564857585481759076A077B079D
S1132C0048F482879387A487B5878481806284830C
S1132C1001C0182F812F26960FB6F894DEBF0FBE81
S1132C20CDBFDF91CF911F91FF90EF90DF90CF90B8
S1132C30BF90AF909F908F907F906F905F904F90D8
S1132C403F902F900895813608F08052813428F007
S1132C508753803130F080E0089580538A3008F043
S1132C6080E008956115710581F020E030E040E0D6
S1132C7050E0FC01E20FF31F208152274F5F242F05
S1132C8030E026173707A8F301C050E0852F0895D8
S1132C90EF92FF920F931F93CF93DF93E82E8B0154
S1132CA0EA0180EA0E94691F81EA0E94691F9E016D
S1132CB02F5F3F4F832F0E94691F8C2F8F5F0E94CD
S1132CC0691F8E2D0E94691F209779F020E030E063
S1132CD0F12CF801E20FF31F80810E94691FF39425
S1132CE02F2D30E02C173D07A0F3BE01C8010E9430
S1132CF032168E250E94691F8DE00E94691F8AE0AA
S1132D000E94691F83E8DF91CF911F910F91FF907B
S1132D10EF9008950F931F93CF93DF93CDB7DEB752
S1132D202A970FB6F894DEBF0FBECDBF082F162F1B
S1132D308FE290E00E943E1F2FEF8FE392E021503C
S1132D4080409040E1F700C0000011FB882780F923
S1132D50898312FB882780F98A8313FB882780F9EB
S1132D608B8314FB882780F98C8315FB882780F9D3
S1132D708D8316FB882780F98E83111F1127111F5D
S1132D801F83188648E050E0BE016F5F7F4F88E0E4
S1132D900E9448162FEF8FE191E02150804090402F
S1132DA0E1F700C0000009871A8642E050E0BE0146
S1132DB0675F7F4F8EE00E9448162FEF8FE191E00E
S1132DC0215080409040E1F700C000002A960FB6E1
S1132DD0F894DEBF0FBECDBFDF91CF911F910F914D
S1132DE00895BF92CF92DF92EF92FF920F931F93B9
S1132DF0CF93DF93C62FA1E034E2D1E0B12CF12CC4
S1132E00B0E0D22EC12C01C0AF5F7A2F7150FA010D
S1132E10EB0FF11D6081662339F0FC01E70FF11D12
S1132E20E0816E1351C0BF5FFC01E70FF11D6081AB
S1132E303627222309F45AC06C3211F4B3944DC0DE
S1132E40B2124BC0F801EF0DF11D7081772309F424
S1132E503FC0F39467133FC0BD2C3FC0F801EF0D92
S1132E60F11D20812111D0E0E11005C021E0D13015
S1132E7009F420E0D22FFC01E60FF71F33972081DD
S1132E802A32F9F4FC01E60FF71F329720816150D2
S1132E9071098C01060F171F8AE2F32EF826F22619
S1132EA0F8018081F826822F0E942316E82EF8016B
S1132EB080810E942316F0E1EF9E800D1124F81208
S1132EC005C08D2F8C2B1BC080E019C080E017C07B
S1132ED0BD2CDC2D02C0BD2CDC2D6A2F70E0FC0162
S1132EE0E60FF71FE081E1118FCFB8CF6A2F70E0B2
S1132EF0FC01E60FF71FE081E11186CFBCCFDF9123
S1132F00CF911F910F91FF90EF90DF90CF90BF90E2
S1132F100895EF92FF920F931F93CF93DF93EC01E9
S1132F20062F04C083E397E00197F1F70E94481F3E
S1132F308432C1F78883FF24F39410E0015011090F
S1132F400E94601F8823E1F30E94481FFE01EF0DD9
S1132F50F11D8083F3948A3029F02F2D30E020175F
S1132F60310774F3FE01EF0DF11D10828B81823560
S1132F7009F444C020F4873409F062C007C08635E0
S1132F8009F448C08A3509F05BC04FC08C818C3489
S1132F9049F1833571F0873409F054C0E12C05E11F
S1132FA011E026E047E151E062E0CE010E94F11613
S1132FB04AC08D81813459F4E12C0EE111E022E004
S1132FC040E251E064E0CE010E94F1163CC0E12CE5
S1132FD007ED11E020E047E251E068E0CE010E94F5
S1132FE0F11631C0EE24E3940AE411E026E04EE247
S1132FF051E060E1CE010E94F11625C0EE24E39475
S11330000AE411E022E045E351E060E2CE010E94CF
S1133010F11619C0E12C0CE311E029E04EE351E074
S113302060E4CE010E94F1160EC0E12C07ED11E020
S113303020E045E451E060E8CE010E94F11603C0AF
S113304080E001C080E0DF91CF911F910F91FF904C
S1133050EF900895169A00C016980895CF93DF93C1
S1133060D82F662311F0149A01C01498159881B1D1
S11330708F6081B9C2B1C07F8D2F82958F708C2BE8
S113308082B90E942A18DF70DC2BD2B90E942A1858
S1133090CF60C2B9DF91CF910895882311F0149ABB
S11330A001C01498159A81B1807F81B9169A00C025
S11330B090B1169800C0169A00C080B116989295E7
S11330C0907F8F70892B089580E00E944D1888238B
S11330D0DCF383E090E00197F1F780E00E944D1863
S11330E00895CF93C82F0E94641860E08C2F0E942B
S11330F02E18CF910895611104C080580E94711850
S11331000895613021F480540E947118089562304A
S113311021F48C560E94711808958C520E947118E3
S1133120089581E00E947118089582E00E94711848
S11331300895CF93C82F0E946418CA30A1F4843133
S113314048F0982F9054943138F084518C3230F4F4
S113315084E505C080E403C084E101C080E08058B8
S11331600E94711804C061E08C2F0E942E18CF9128
S11331700895CF93DF93EC018991882329F00E946D
S1133180991889918111FBCFDF91CF9108951F93F5
S1133190CF93DF93182F81B18F6781B9E0E3F3E711
S11331A03197F1F7119A109A0E942A18E0EFF3E28E
S11331B03197F1F70E942A18C5E7D0E0FE01319754
S11331C0F1F70E942A18FE013197F1F710980E9436
S11331D02A182197F1F788E20E94711888E00E946A
S11331E071180E94911886E00E947118812F0E9424
S11331F07118DF91CF911F91089523B10197E9F7D9
S11332000895FC01680F791F8191882314F42D9A85
S113321001C02D982F9A2F9886FF02C02D9A01C0C5
S11332202D982F9A2F9885FF02C02D9A01C02D98B2
S11332302F9A2F9884FF02C02D9A01C02D982F9A9F
S11332402F9883FF02C02D9A01C02D982F9A2F9892
S113325082FF02C02D9A01C02D982F9A2F9881FFCA
S113326002C02D9A01C02D982F9A2F9880FF02C07A
S11332702D9A01C02D982F9A2F98E617F70721F65B
S11332800895FC012D9A680F791F83B12F9A2F9806
S113329086FB882780F9880F1E998F5F2F9A2F98B5
S11332A0880F1E998F5F2F9A2F98880F1E998F5F12
S11332B02F9A2F98880F1E998F5F2F9A2F98880F17
S11332C01E998F5F2F9A2F98880F1E998F5F2F9AC0
S11332D02F98880F1E998F5F2F9A2F988193E61746
S11332E0F70799F608950F931F93CF93DF931F92D7
S11332F0CDB7DEB708E813E161E070E0CE010196D6
S11333000E94411989818F3F39F084E690E00E9440
S1133310FD180150110981F721E030E0012B11F46F
S113332020E030E0822F932F0F90DF91CF911F91F7
S11333300F910895CF93DF931F92CDB7DEB72B9AE9
S113334061E070E0CE0101960E9441190F90DF9177
S1133350CF910895CF93DF931F92CDB7DEB72B980B
S113336061E070E0CE0101960E9441190E94731938
S1133370892B29F40E949A1920E030E002C021E050
S113338030E0822F932F0F90DF91CF910895CF9249
S1133390DF92EF92FF920F931F93CF93DF9300D0AE
S11333A0CDB7DEB77C016B0108EE13E061E070E09D
S11333B0CE0101960E94411989818F3F39F484E638
S11333C090E00E94FD180150110981F789818E3F18
S11333D069F4B601C7010E94411962E070E0CE01B0
S11333E001960E94411921E030E002C020E030E063
S11333F0822F932F0F900F90DF91CF911F910F91F8
S1133400FF90EF90DF90CF900895FF920F931F935A
S1133410CF93DF9300D0CDB7DEB78C01F62E0E9498
S11334207319892B21F1F98261E070E0CE010196D4
S11334300E9401198DEFF816E9F060E072E0C8010E
S11334400E94011962E070E0CE0101960E944119C8
S113345061E070E0CE0101960E94411989818F716B
S113346021E030E0853041F020E030E005C020E08C
S113347030E002C021E030E0822F932F0F900F90B4
S1133480DF91CF911F910F91FF900895DF92EF92FA
S1133490FF920F931F93CF93DF93CDB7DEB7279798
S11334A00FB6F894DEBF0FBECDBF182F042FF52E34
S11334B0E62ED72E882354F440E050E0BA0187E387
S11334C00E94461A823008F04CC01F771C3081F1EC
S11334D00E949A190E94AA19892B41F1812F8064B4
S11334E08A83DB82EC82FD820E83112389F11830FA
S11334F031F181E08F8366E070E0CE0102960E9494
S113350001191C3031F461E070E0CE0101960E9493
S113351041191AE061E070E0CE0101960E94411960
S113352089818823F4F41150A9F71BC08FEF19C0C7
S11335308CE48A83DB82EC82FD820E83DACF87E817
S11335408F8366E070E0CE0102960E940119E1CFFC
S113355085E98F8366E070E0CE0102960E9401192E
S1133560D8CF27960FB6F894DEBF0FBECDBFDF913C
S1133570CF911F910F91FF90EF90DF9008958111EB
S113358003C080910001089581E00895EF92FF92B5
S11335900F931F93CF93DF9300D000D0CDB7DEB746
S11335A08111ADC080E197E20E94FD18239A2B9A05
S11335B0279A2F98259A1AE061E070E0CE010196CF
S11335C00E9441191150C1F740E050E0BA0180E077
S11335D00E94461A813009F077C04AEA51E060E05F
S11335E070E088E00E94461A8130D9F564E070E00A
S11335F0CE0101960E9441198B81813009F066C089
S11336008C818A3A09F064C008EE13E040E050E08F
S113361060E070E489EA0E94461A882349F088EE43
S113362093E00E94FD180150110981F7F12C5DC04F
S1133630012B09F44FC040E050E0BA018AE30E9434
S1133640461A811149C064E070E0CE0101960E94DF
S11336504119898186FF42C00F2EFCE0FF2EF02D18
S113366044C040E050E0BA0189EA0E94461A823020
S113367040F40F2EF9EAEF2EF02D6894FF24F1F8B0
S113368004C0EE24E394FF24F39408EE13E040E036
S113369050E0BA018E2D0E94461A882349F088EE24
S11336A093E00E94FD180150110989F7F12C1DC007
S11336B0012BC1F040E052E060E070E080E10E9444
S11336C0461A811111C011C0F12C0FC0F12C0DC08C
S11336D0F12C0BC0F12C09C0F12C07C06894FF2415
S11336E0F2F803C0F12C01C0F12CF0927C0211E03D
S11336F0F11010E0109300010E949A1901C013E028
S1133700812F0F900F900F900F90DF91CF911F9109
S11337100F91FF90EF900895BF92CF92DF92EF92B6
S1133720FF920F931F93CF93DF93EB0169017A010B
S11337300E94BF1A80FD3BC080917C0283FD09C0BA
S11337400B2EB9E0CC0CDD1CEE1CFF1CBA95D1F796
S1133750B02D0230110528F00F2EF2E1BF2EF02D0E
S113376004C00F2EF1E1BF2EF02DB701A6018B2D61
S11337700E94461A811114C060E072E0CE010E94DA
S1133780C719892B21F0DE5F01501109A9F782E1E5
S1133790B81206C040E050E0BA018CE00E94461A1C
S11337A00E949A1981E0012B19F480E001C083E0A2
S11337B0DF91CF911F910F91FF90EF90DF90CF9009
S11337C0BF900895CF92DF92EF92FF920F931F93D1
S11337D0CF93DF93EB0169017A010E94BF1A80FD48
S11337E04BC080917C0283FD09C00B2EB9E0CC0C48
S11337F0DD1CEE1CFF1CBA95D1F7B02D013011056C
S113380091F4B701A60188E10E94461A81112DC0E6
S11338106EEFCE010E94051A01E010E0892B29F118
S113382000E010E022C0867031F0A80160E070E092
S113383087E90E94461AB701A60189E10E94461A47
S1133840811113C06CEFCE010E94051A892B21F05F
S1133850DE5F01501109B1F76DEF80E090E00E9446
S1133860051A892B11F401E010E00E949A1981E0F5
S1133870012B19F480E001C083E0DF91CF911F9107
S11338800F91FF90EF90DF90CF900895CF92DF9249
S1133890EF92FF920F931F93CF93DF93CDB7DEB7D1
S11338A060970FB6F894DEBF0FBECDBFF62E8A0127
S11338B00E94BF1A80FD9AC0CC24C394FC1489F0E2
S11338C0FC1438F00F2EF3E0DF2EF02DFD1086C02F
S11338D07AC00E94AA1911E0892B09F484C010E06F
S11338E082C040E050E0BA0189E00E94461A81118A
S11338F077C060E170E0CE0101960E94C719892B60
S113390009F470C08981829586958695837081308B
S113391021F588858F7390E0A0E0B0E0DC01992761
S113392088270196A11DB11D398520E04A85240F01
S1133930311D820F931FA11DB11D072E7AE0880F40
S1133940991FAA1FBB1F7A95D1F7702DF8018083A8
S11339509183A283B38310E046C04985429546957E
S113396046954370888550E0F4E08F9F400D511DCB
S113397011244F5F5F4F2F812370922F990F990F5E
S113398080E0480F591F60E070E09E819F708B8536
S1133990881F8827881F980F9E5F8A858370880FE9
S11339A0890F90E009976A017B0104C0CC0CDD1CEF
S11339B0EE1CFF1C8A95D2F7F801C082D182E28204
S11339C0F38210E010C080E890E0A0E0B0E0F801DD
S11339D080839183A283B38310E005C014E003C005
S11339E011E001C011E00E949A1901C013E0812F77
S11339F060960FB6F894DEBF0FBECDBFDF91CF91B6
S1133A001F910F91FF90EF90DF90CF900895CF9387
S1133A10DF9300D0CDB7DEB72FEF8FE793E42150CB
S1133A2080409040E1F700C00000789487B18FEFA8
S1133A3087B960E181E00E948A168FE00E94C7186E
S1133A40EFEFFFE726E1E150F0402040E1F700C04E
S1133A50000040E067ED71E085E393E00E94CE0E44
S1133A6041E06CE471E08BE396E00E94210F811148
S1133A7016C09E012F5F3F4F4CE150E063E675E0B6
S1133A808BE396E00E944F108BE396E00E94331480
S1133A9089819A814C9719F488B18FEF88B9E4E64B
S1133AA0F0E08081896E80830E9491180E949518AD
S1133AB083E591E00E94B91861E080E00E947B18E0
S1133AC086E691E00E94B91862E080E00E947B18CB
S1133AD08AE791E00E94B9188FEF9FE3E5E68150F1
S1133AE09040E040E1F700C000000E9491180E945D
S1133AF095188EE891E00E94B918FFEF2FE786E150
S1133B00F15020408040E1F700C000000E94951869
S1133B108FE991E00E94B9189FEFEFE7F6E1915029
S1133B20E040F040E1F700C000000E94951881EBEE
S1133B3091E00E94B9182FEF8FE796E12150804061
S1133B409040E1F700C000000E94951884EC91E0D9
S1133B500E94B918EFEFFFE726E1E150F040204062
S1133B60E1F700C000000E9491180E94951888EDAA
S1133B7091E00E94B91861E080E00E947B188AEE0F
S1133B8091E00E94B91862E080E00E947B188FEEF9
S1133B9091E00E94B9180AE615E06894FF24F2F84F
S1133BA061E08F2D0E947B18F80181918F010E94A2
S1133BB09918F394FEE0FF12F3CF05E715E068943B
S1133BC0FF24F2F862E08F2D0E947B18F8018191A6
S1133BD08F010E949918F394FEE0FF12F3CF2FEFA8
S1133BE08FEF99E5215080409040E1F700C000003C
S1133BF00E9491180E94951884EF91E00E94B918D0
S1133C00EFEFFFE726E1E150F0402040E1F700C08C
S1133C1000000E9491180E94951884E092E00E948E
S1133C20B9188FEF9FE7E6E181509040E040E1F75B
S1133C3000C000000E9491180E94951885E192E04E
S1133C400E94B918FFEF2FE786E1F1502040804031
S1133C50E1F700C000000E9491180E94951887E2C5
S1133C6092E00E94B9189FEFEFE7F6E19150E0402F
S1133C70F040E1F700C00000212C312C0F2EFAE8AF
S1133C808F2EF5E09F2EF02D6894442442F8512C99
S1133C900F2EF6E6AF2EF6E0BF2EF02D0F2EF2E338
S1133CA06F2EF6E07F2EF02D60E883E995E00E9408
S1133CB0891780FFC6C00E9491180E9495188AE354
S1133CC092E00E94B91861E080E00E947B1883E4CE
S1133CD092E00E94B91862E080E00E947B188AEEAC
S1133CE091E00E94B91863E080E00E947B188FEE97
S1133CF091E00E94B9180F2EF7E2CF2EF6E0DF2EE6
S1133D00F02D0F2EF3E1EF2EF6E0FF2EF02D01E261
S1133D1013E02BE536E04FE755E063E675E083E911
S1133D2095E00E9472010F2EFFE7CF2EF5E0DF2E03
S1133D30F02D820162E0802F0E947B187601F6014B
S1133D408081882341F00E9499180F5F1F4FF7016B
S1133D5080818111F8CFFFEFCF1ADF0AC814D9048C
S1133D6049F70F2EFBE5CF2EF6E0DF2EF02D820172
S1133D7063E0802F0E947B187601F60180818823FE
S1133D8041F00E9499180F5F1F4FF7018081811144
S1133D90F8CFFFEFCF1ADF0ACA14DB0449F70F2E5E
S1133DA0F7E2CF2EF6E0DF2EF02D820161E0802FC6
S1133DB00E947B187601F6018081882341F00E94DD
S1133DC099180F5F1F4FF70180818111F8CFFFEF22
S1133DD0CF1ADF0AC614D70449F72FEF8FE39BE00D
S1133DE0215080409040E1F700C000004AE068E4C0
S1133DF072E08BE396E00E94210F811132C0A10191
S1133E00662757FD6095762F8BE396E00E94441455
S1133E109E012F5F3F4F40E850E063E975E08BE37C
S1133E2096E00E94E011E0E82E0E311C8BE396E050
S1133E300E94331489819A818038910591F4429AC1
S1133E4010C061E080E00E947B1880E592E00E944F
S1133E50B91862E080E00E947B1882E692E00E943A
S1133E60B91883B7816083BF889583B78E7F83BF7A
S1133E701BCF60E070E08CEF92E408959093CD0046
S1133E808093CC00E9ECF0E0808188698083089518
S1133E909091A00280919F02981781F08091A002D6
S1133EA08F5F8093A002882314F41092A002E09103
S1133EB0A002F0E0EF55FD4F8081089580E0089561
S1133EC02091A00290919F0281E0291301C080E01B
S1133ED0089520917D0230E02F5F3F4F203231055D
S1133EE03CF090917E029923E1F310927D0210C080
S1133EF040917D0220917E0250E04F5F5F4F30E0A1
S1133F0042175307A9F390917D029F5F90937D021E
S1133F10E0917D02F0E0E158FD4F8083E9ECF0E0B0
S1133F2080818062808308951F920F920FB60F9252
S1133F3011242F933F938F939F93EF93FF9380913B
S1133F409F0290E00196803891057CF08091A00258
S1133F50882311F110929F02E0919F02F0E080917A
S1133F60CE00EF55FD4F808319C020919F028091B0
S1133F70A00230E02F5F3F4F90E02817390761F02F
S1133F80E0919F02EF5FE0939F02F0E08091CE000A
S1133F90EF55FD4F808302C08091CE00FF91EF91D9
S1133FA09F918F913F912F910F900FBE0F901F9073
S1133FB018951F920F920FB60F9211248F939F930F
S1133FC0EF93FF9390917E0280917D02981791F078
S1133FD080917E028F5F80937E02803210F0109277
S1133FE07E02E0917E02F0E0E158FD4F80818093F3
S1133FF0CE0005C0E9ECF0E080818F7D8083FF91E5
S1134000EF919F918F910F900FBE0F901F90189575
S11340105058BB27AA270ED08FC158D130F05DD19C
S113402020F031F49F3F11F41EF428C10EF4E09502
S1134030E7FB1EC1E92FA2D180F3BA176207730709
S11340408407950718F071F49EF5BAC10EF4E09553
S11340500B2EBA2FA02D0B01B90190010C01CA013E
S1134060A0011124FF27591B99F0593F50F4503EE9
S113407068F11A16F040A22F232F342F4427585FDB
S1134080F3CF469537952795A795F0405395C9F7F3
S11340907EF41F16BA0B620B730B840BBAF09150AB
S11340A0A1F0FF0FBB1F661F771F881FC2F70EC04A
S11340B0BA0F621F731F841F48F48795779567951D
S11340C0B795F7959E3F08F0B3CF9395880F08F006
S11340D09927EE0F979587950895F8D058F080E8C2
S11340E091E009F49EEFF9D028F040E851E059F44A
S11340F05EEF09C0C3C064C1E92FE0783FD168F323
S1134100092E052AC1F3261737074807590738F03F
S11341100E2E07F8E02569F0E025E0640AC0EF639D
S113412007F8009407FADB01B9019D01DC01CA011B
S1134130AD01EF9344D000D10AD05F91552331F003
S11341402BED3FE049E450FD49EC63CF0895DF9344
S1134150DD27B92FBF7740E85FE316161706480737
S11341605B0710F4D92F33D19F938F937F936F9371
S1134170E0D1ECE7F0E085D0DFD02F913F914F9173
S11341805F9138D1DD2349F09058A2EA2AED3FE04F
S113419049EC5FE3D0785D274DDFDF91CDC0A5D03A
S11341A0E395DBC09AD040F091D030F021F45F3F2A
S11341B019F05EC0511105C161C0E0D098F3992394
S11341C0C9F35523B1F3951B550BBB27AA276217D7
S11341D07307840738F09F5F5F4F220F331F441F1C
S11341E0AA1FA9F333D00E2E3AF0E0E830D0915054
S11341F05040E695001CCAF729D0FE2F27D0660F41
S1134200771F881FBB1F261737074807AB07B0E87F
S113421009F0BB0B802DBF01FF2793585F4F2AF095
S11342209E3F510568F024C0CCC05F3FECF3983E3C
S1134230DCF3869577956795B795F7959F5FC9F7F2
S1134240880F911D9695879597F90895E1E0660F7B
S1134250771F881FBB1F621773078407BA0720F0F4
S1134260621B730B840BBA0BEE1F88F7E09508955D
S113427097F99F6780E870E060E008959FEF80EC15
S11342800895DF93CF931F930F93FF92EF92DF92E2
S11342907B018C01689405C0DA2EEF01ABD0FE01DE
S11342A0E894A5912591359145915591AEF3EF018F
S11342B0C1DEFE019701A801DA9479F7DF90EF904F
S11342C0FF900F911F91CF91DF91089500240A94DC
S11342D01616170618060906089500240A941216DD
S11342E01306140605060895C9CF50D0E8F3E894E0
S11342F0E0E0BB279F57F0F02AED3FE049EC06C011
S1134300EE0FBB0F661F771F881F28F0B23A6207B3
S11343107307840728F0B25A620B730B840BE3957E
S11343209A9572F7803830F49A95BB0F661F771F01
S1134330881FD2F7904804C1092E0394000C11F48D
S1134340882352F0BB0F40F4BF2B11F460FF04C06C
S11343506F5F7F4F8F4F9F4F0895EF93E0FF06C02D
S1134360A2EA2AED3FE049EC5FEB64DEE5DF0F9063
S1134370039401FC9058E9EAF0E0F5C057FD905829
S1134380440F551F59F05F3F71F04795880F97FB15
S1134390991F61F09F3F79F08795089512161306CF
S11343A01406551FF2CF4695F1DF08C016161706FE
S11343B01806991FF1CF8695710561050894089533
S11343C0E894BB2766277727CB0197F908959B01CB
S11343D0AC0160E070E080E89FE3AEC00BD0ACCFEE
S11343E075DF28F07ADF18F0952309F041CF46CF26
S11343F01124E7CFC3DFA0F3959FD1F3950F50E0CD
S1134400551F629FF001729FBB27F00DB11D639F82
S1134410AA27F00DB11DAA1F649F6627B00DA11D28
S1134420661F829F2227B00DA11D621F739FB00DCE
S1134430A11D621F839FA00D611D221F749F33273E
S1134440A00D611D231F849F600D211D822F762FD7
S11344506A2F11249F5750408AF0E1F088234AF0D4
S1134460EE0FFF1FBB1F661F771F881F9150504020
S1134470A9F79E3F510570F0FBCEA3CF5F3FECF34D
S1134480983EDCF3869577956795B795F795E7950C
S11344909F5FC1F7FE2B880F911D9695879597F91D
S11344A008959F9322DF0F9007FCEE5F56CF11F41F
S11344B00EF4E4CE43C06ADFD0F39923D9F3CEF3EC
S11344C09F57550B87FF48D00024A0E640EA90018F
S11344D080585695979528F4805C660F771F881F3F
S11344E020F026173707480730F4621B730B840B40
S11344F0202931294A2BA695179407942025312584
S11345004A2758F7660F771F881F20F026173707AA
S1134510480730F4620B730B840B200D311D411DD1
S1134520A09581F7B901842F9158880F96958795A6
S113453008959B01AC0152CF40DEFECE9F3F31F087
S1134540915020F4879577956795B795880F911DBD
S11345509695879597F9089591505040660F771F67
S1134560881FD2F708959F938F937F936F93FF9340
S1134570EF939B01AC0132DFEF91FF9182DE2F912B
S11345803F914F915F912ACFA1E21A2EAA1BBB1B28
S1134590FD010DC0AA1FBB1FEE1FFF1FA217B3070B
S11345A0E407F50720F0A21BB30BE40BF50B661F21
S11345B0771F881F991F1A9469F7609570958095E5
S11345C090959B01AC01BD01CF0108950E94F12299
S11345D0A59F900DB49F900DA49F800D911D112453
S11345E00895A29FB001B39FC001A39F01D0B29FC1
S11345F0700D811D1124911D0895662777270C9451
S1134600FF24AEE0B0E0E7E0F3E20C9482270D89EA
S11346101E8986E08C831A8309838FEF9FE79E832C
S11346208D83CE014996AC016F89788DCE010196B8
S11346300E942323EF81F885E00FF11F10822E964C
S1134640E4E00C949E27ACE0B0E0E9E2F3E20C94E1
S113465074277C016B018A01FC0117821682838115
S113466081FFC6C188248394912C8C0E9D1EF70172
S11346709381F60193FD859193FF81916F018823C6
S113468009F4B2C1853239F493FD859193FF819188
S11346906F01853229F4B70190E00E948226E7CFAA
S11346A0512C312C20E02032A8F48B3261F028F414
S11346B0803251F0833271F40BC08D3239F0803383
S11346C049F4216028C02260246025C0286023C0EA
S11346D0206121C027FD27C0382F30533A3078F4A9
S11346E026FF06C0FAE05F9E300D1124532E13C03E
S11346F08AE0389E300D1124332E20620CC08E3295
S113470021F426FD71C1206406C08C3611F42068A2
S113471002C0883641F4F60193FD859193FF81919F
S11347206F018111C0CF982F9554933018F0905297
S1134730933028F40C5F1F4FFFE3F9830DC08336D9
S113474031F0833771F0833509F05EC023C0F8017E
S1134750808189830E5F1F4F44244394512C54015C
S113476015C03801F2E06F0E711CF801A080B18011
S113477026FF03C0652D70E002C06FEF7FEFC50117
S11347802C870E9477262C0183012C856FE7262E27
S1134790222218C03801F2E06F0E711CF801A080CB
S11347A0B18026FF03C0652D70E002C06FEF7FEF7C
S11347B0C5012C870E946C262C012C8550E8252EDF
S11347C0222A830123FC1CC006C0B70180E290E0CA
S11347D00E9482263A94832D90E048165906A8F345
S11347E00FC0F50127FC859127FE81915F01B70178
S11347F090E00E94822631103A94F1E04F1A510859
S11348004114510471F7EDC0843611F0893641F535
S1134810F80127FF07C060817181828193810C5F59
S11348201F4F08C060817181882777FD8095982F7C
S11348300E5F1F4F4FE6B42EB22297FF09C090952A
S11348408095709561957F4F8F4F9F4FF0E8BF2AF9
S11348502AE030E0A4010E94AE26A82EA81843C086
S1134860853731F43FEEB32EB2222AE030E024C083
S113487099EFB92EB2228F36B9F020F4883509F0B9
S1134880B3C00DC0803721F0883709F0ADC002C035
S113489020E1B22AB4FE0BC084E0B82A08C024FF89
S11348A009C0E6E0BE2A06C028E030E005C020E1E9
S11348B030E002C020E132E0F801B7FE07C06081B9
S11348C07181828193810C5F1F4F06C06081718169
S11348D080E090E00E5F1F4FA4010E94AE26A82E38
S11348E0A818FFE7BF22B6FE0BC02B2D2E7FA51400
S11348F050F4B4FE0AC0B2FC08C02B2D2E7E05C0B5
S11349007A2C2B2D03C07A2C01C0752C24FF0DC0EA
S1134910FE01EA0DF11D8081803311F4297E09C066
S113492022FF06C07394739404C0822F867809F022
S1134930739423FD14C020FF0FC05A2C731460F429
S1134940530C5718732C08C0B70180E290E02C87F1
S11349500E94822673942C857314B0F304C07314DC
S113496010F4371801C0312C24FF12C0B70180E3C2
S113497090E02C870E9482262C8522FF1EC021FFF6
S113498003C088E590E002C088E790E0B7010CC05E
S1134990822F867891F021FD02C080E201C08BE273
S11349A027FD8DE2B70190E00E94822606C0B70180
S11349B080E390E00E9482265A94A514C0F3AA943E
S11349C0F401EA0DF11DB701808190E00E94822676
S11349D0A110F5CF06C0B70180E290E00E948226C4
S11349E03A943110F8CF43CEF7012681378102C0C3
S11349F02FEF3FEFC9012C96E2E10C949027A0E041
S1134A00B0E0E5E0F5E20C947A277B0161157105CD
S1134A1021F0DB018C9311969C93EC01C9908E01DB
S1134A208C2D90E00E944C26892BC1F7BDE2CB125D
S1134A3006C0FE01C1908F01DD24D39407C0FBE2C0
S1134A40CF1203C0DE01CD908D01D12CE801219756
S1134A5043E050E067EC70E0CE010E945426892BBD
S1134A60C9F4E801229645E050E06AEC70E0CE011A
S1134A700E945426892B11F4E8012796E114F104CD
S1134A8019F0F701D183C083812C912C90E8D110C7
S1134A90F3C0F7C043E050E06FEC70E0CE010E9439
S1134AA05426892B51F4E114F10409F4E7C00E5F94
S1134AB01F4FD7010D931C93E1C060E070E0CB0160
S1134AC0C0E0D0E0EC2DE053EA3020F5FD2DF2609B
S1134AD02D2D2870D2FE04C0211122C0219620C0A1
S1134AE021112197A5E0B0E09B01AC010E94E622D0
S1134AF0660F771F881F991F6E0F711D811D911DF1
S1134B006839B9E97B078B07B9E19B0748F0FD2DAC
S1134B10F66006C0EE3F49F4D3FC43C0FD2DF860B7
S1134B20D801CD908D01DF2ECDCFE53311F0E531E5
S1134B30C1F5F801A081AD3219F4F0E1DF2A07C014
S1134B40AB3229F00F5F1F4F21E030E006C0F801BF
S1134B50A1810E5F1F4F22E030E0A053AA3018F06D
S1134B60021B130B1EC0F80120E030E020384CE09B
S1134B7034075CF4A901440F551F440F551F240F3B
S1134B80351F220F331F2A0F311DA191A0538F010E
S1134B90AA3060F3D4FE03C0319521953109C20FC8
S1134BA0D31FD1FE08C0E114F10429F0015011090A
S1134BB0D7010D931C930E9410272D2D23702330B1
S1134BC019F04B015C0105C0DC01CB01B0584C016C
S1134BD05D0120E030E0A901682D792D8A2D9B2DFF
S1134BE00E940C27882309F444C0D7FF06C0D1953E
S1134BF0C195D1090EEF10E002C006EE10E0680185
S1134C00B8E1CB1AD10890E2E92EF12C13C0F801D7
S1134C1085919591A591B491282F392F4A2F5B2F17
S1134C20682D792D8A2D9B2D0E94EE214B015C016C
S1134C30CE19DF09CE15DF0554F704501109F59498
S1134C40E7940C151D05B1F7B401C501282F220FF7
S1134C50292F221F2F3F39F020E030E0A9010E94C4
S1134C600C27811106C082E290E090937006809335
S1134C706F069A2D8B2D06C08FEF04C0812C912CCA
S1134C8090EC8FE79C01682D792D832F922FCDB75F
S1134C90DEB7ECE00C949627911123C1803219F011
S1134CA089508550D0F70895FB01DC0141505040F4
S1134CB088F08D9181341CF08B350CF4805E659105
S1134CC061341CF06B350CF4605E861B611171F36A
S1134CD0990B0895881BFCCFFC010590615070402E
S1134CE00110D8F7809590958E0F9F1F0895FC01B1
S1134CF06150704001900110D8F7809590958E0F07
S1134D009F1F08950F931F93CF93DF938C01EB01A3
S1134D108B8181FD03C00FEF1FEF1AC082FF0DC00E
S1134D202E813F818C819D812817390764F4E881A5
S1134D30F9810193F983E88306C0E885F985802F1A
S1134D400995892B41F78E819F8101969F838E83DC
S1134D50C801DF91CF911F910F910895FA01AA27FD
S1134D60283051F1203181F1E8946F936E7F6E5FAA
S1134D707F4F8F4F9F4FAF4FB1E03ED0B4E03CD058
S1134D80670F781F891F9A1FA11D680F791F8A1F3B
S1134D90911DA11D6A0F711D811D911DA11D20D0A2
S1134DA009F468943F912AE0269F11243019305D5C
S1134DB03193DEF6CF010895462F4770405D41934D
S1134DC0B3E00FD0C9F7F6CF462F4F70405D4A339A
S1134DD018F0495D31FD4052419302D0A9F7EACF62
S1134DE0B4E0A6959795879577956795BA95C9F791
S1134DF000976105710508959B01AC010A2E069484
S1134E005795479537952795BA95C9F7620F731F3C
S1134E10841F951FA01D089540D008F481E00895D3
S1134E20E89409C097FB3EF4909580957095619540
S1134E307F4F8F4F9F4F9923A9F0F92F96E9BB27F6
S1134E409395F695879577956795B795F111F8CF72
S1134E50FAF4BB0F11F460FF1BC06F5F7F4F8F4FDD
S1134E609F4F16C0882311F096E911C0772321F0D3
S1134E709EE8872F762F05C0662371F096E8862F6B
S1134E8070E060E02AF09A95660F771F881FDAF7C2
S1134E90880F9695879597F90895990F0008550FEF
S1134EA0AA0BE0E8FEEF16161706E807F907C0F0AC
S1134EB012161306E407F50798F0621B730B840BB4
S1134EC0950B39F40A2661F0232B242B252B21F48E
S1134ED008950A2609F4A140A6958FEF811D811D2E
S1134EE008959927882708952F923F924F925F92B1
S1134EF06F927F928F929F92AF92BF92CF92DF92E6
S1134F00EF92FF920F931F93CF93DF93CDB7DEB74A
S1134F10CA1BDB0B0FB6F894DEBF0FBECDBF0994DE
S1134F202A88398848885F846E847D848C849B8435
S1134F30AA84B984C884DF80EE80FD800C811B8143
S1134F40AA81B981CE0FD11D0FB6F894DEBF0FBE72
S10D4F50CDBFED010895F894FFCFE2
S1134F5A01252E346600222A2B2C3A3B3C3D3E3F47
S1134F6A5B5D7C7F00300024475047474100310095
S1134F7A2447504753410024475047535600244777
S1134F8A50474C4C00244750524D43004E0024478E
S1134F9A50565447002447505A444100494E2E74EF
S1134FAA787400475053204C6F67676572205072BB
S1134FBA6F6A65637400427920486964617961742F
S1134FCA20616E64204D616E7500436F6D702045DB
S1134FDA6E6720485457204265726C696E005265A8
S1134FEA6164696E672066726F6D2053442E0052A5
S1134FFA656164696E672066726F6D2053442E2E54
S113500A0052656164696E672066726F6D2053444D
S113501A2E2E2E0052656164696E672066726F6D6A
S113502A2053442E2E2E2E004465737420636F6F12
S113503A722066726F6D205344004C61743A004CBE
S113504A6F6E3A0046657463682047505320636F55
S113505A6F722E0046657463682047505320636F4D
S113506A6F722E2E0046657463682047505320637E
S113507A6F6F722E2E2E0046657463682047505354
S113508A20636F6F722E2E2E2E00506F736974690F
S113509A6F6E004469733A004F55542E7478740045
S11350AA57616974696E6720666F722076616C69EC
S11350BA6400636F6F722066726F6D204750532EBF
S10750CA2E2E000082
S9030000FC
